:100000000C941D070C9421230C94FA220C94482381
:100010000C9448230C9448230C9421240C944507F9
:100020000C9445070C9445070C9445070C94450720
:100030000C9445070C94C0230C9445070C94450779
:100040000C94B0220C9445070C947E220C945822F8
:100050000C9445070C9445070C9445070C944507F0
:100060000C9445070C9445072E0020446574656385
:10007000746F7220760020204C696768746E696E18
:10008000670020202050493452415A00446973616E
:10009000626C656400456E61626C656400446973FE
:1000A000743A00496E646F6F7273004F7574646FB9
:1000B0006F72004D6F64653A0043616C6C3A004E9C
:1000C0006F20636F6E6E656374696F6E002A002027
:1000D000204842433D00496E666F3A00293A00438A
:1000E0006F6E74726173742800293A0053637265ED
:1000F000656E2031202830202D203329202800292A
:100100003A0054696D6520636F7272656374696F3C
:100110006E202800293A005370696B652072656A69
:10012000656374696F6E206C6576656C202830207D
:100130002D20313529202800293A004E6F6973653A
:100140006C6576656C202831202D20382920280008
:10015000293A004361706163697479202800293A63
:100160000023426565706572202800293A20004509
:100170006E61626C65640044697361626C65640001
:100180004469737475726265722028302F3129209A
:100190002800293A20004F7574646F6F727300490C
:1001A0006E646F6F727300496E646F6F72733D306F
:1001B000206F72204F7574646F6F72733D31202809
:1001C00000293A0043616C6C202800293A005061F4
:1001D0007373776F7264202800293A00535349449F
:1001E0002028005761746368646F672072656365D7
:1001F0006976656420286D6178203130292000728D
:100200006561647900486172642072657365742C5D
:1002100020617474656D7074200041544530004154
:10022000540041542B525354003C2D2D2D2000419D
:10023000542B4349504D55583D3000222C2200414B
:10024000542B43574A41503D220041542B43574DB4
:100250004F44453D310041542B43494653520041E0
:10026000542B4349505345525645523D300041545A
:100270002B4349504D55583D300041542B4349467E
:100280005352004661696C65643A20686172647714
:10029000617265207265736574004661696C65649E
:1002A0003A20736F66747761726520726573657446
:1002B000004661696C65643A20636F6E6E656374B5
:1002C000696E67004661696C65643A204E6F20492B
:1002D00050206E756D6265720053657420746F20D6
:1002E00073696E676C6520636F6E6E656374206DF5
:1002F0006F6465005365727665726D6F6465206129
:100300006C726561647920736574005365727665FB
:10031000726D6F646520736574004F4B0A436865A6
:10032000636B696E6720495020616464722E2E2EC3
:1003300000436F6E6E656374696E6720746F20573B
:100340006946692E2E2E005365742054696D654FE1
:100350007574732E2E2E00536F667420726573654C
:10036000742E2E2E00486172642072657365742E9F
:100370002E2E0020485454502F312E310D0A486F34
:1003800073743A206F6E776565722E70693472618E
:100390007A2E6E6C002644697374616E63653D004D
:1003A00026496E74547970653D00474554202F41AD
:1003B00064644576656E742E7068703F43616C6C42
:1003C0007369676E3D006F6E776565722E70693474
:1003D00072617A2E6E6C00474554202F74696D65EA
:1003E0002E70687020485454502F312E310D0A4819
:1003F0006F73743A206F6E776565722E7069347210
:10040000617A2E6E6C006F6E776565722E7069343E
:1004100072617A2E6E6C002D2D2D3E2000000000A2
:1004200000003E5B4F5B3E3E6B4F6B3E1C3E7C3E96
:100430001C183C7E3C181C577D571C1C5E7F5E1CA4
:1004400000183C1800FFE7C3E7FF0018241800FF5E
:10045000E7DBE7FF30483A060E2629792926407F58
:10046000050507407F05253F5A3CE73C5A7F3E1C67
:100470001C08081C1C3E7F14227F22145F5F005F53
:100480005F06097F017F006689956A606060606031
:1004900094A2FFA29408047E040810207E20100875
:1004A000082A1C08081C2A08081E101010100C1E10
:1004B0000C1E0C30383E3830060E3E0E0600000092
:1004C000000000005F00000007000700147F147F99
:1004D00014242A7F2A1223130864623649562050B6
:1004E0000008070300001C2241000041221C002AD2
:1004F0001C7F1C2A08083E0808008070300008088D
:10050000080808000060600020100804023E5149FD
:10051000453E00427F400072494949462141494DCC
:10052000331814127F1027454545393C4A49493153
:1005300041211109073649494936464949291E00D2
:10054000001400000040340000000814224114147C
:10055000141414004122140802015909063E415D99
:10056000594E7C1211127C7F494949363E41414126
:10057000227F4141413E7F494949417F09090901A3
:100580003E414151737F0808087F00417F410020B0
:1005900040413F017F081422417F404040407F029C
:1005A0001C027F7F0408107F3E4141413E7F0909C4
:1005B00009063E4151215E7F0919294626494949CC
:1005C0003203017F01033F4040403F1F2040201F76
:1005D0003F4038403F631408146303047804036108
:1005E00059494D43007F4141410204081020004118
:1005F00041417F04020102044040404040000307A3
:10060000080020545478407F2844443838444444F7
:1006100028384444287F385454541800087E09026E
:1006200018A4A49C787F0804047800447D4000202E
:1006300040403D007F1028440000417F40007C0482
:100640007804787C080404783844444438FC18243E
:10065000241818242418FC7C080404084854545412
:100660002404043F44243C4040207C1C2040201CA7
:100670003C4030403C44281028444C9090907C44AE
:1006800064544C44000836410000007700000041EB
:1006900036080002010204023C2623263C1EA1A1CA
:1006A00061123A4040207A385454555921555579B1
:1006B0004122545478422155547840205455794071
:1006C0000C1E5272123955555559395454545939D2
:1006D000555454580000457C410002457D420001BC
:1006E000457C407D1211127DF0282528F07C545560
:1006F00045002054547C547C0A097F4932494949B9
:10070000323A4444443A324A4848303A4141217AE4
:100710003A42402078009DA0A07D3D4242423D3DAE
:100720004040403D3C24FF2424487E4943662B2F13
:10073000FC2F2BFF0929F620C0887E090320545482
:1007400079410000447D413048484A3238404022D7
:100750007A007A0A0A727D0D19317D2629292F28FF
:10076000262929292630484D40203808080808083D
:10077000080808382F10C8ACBA2F102834FA000027
:100780007B000008142A142222142A14085500554C
:100790000055AA55AA55AAFF55FF55FF000000FFB6
:1007A00000101010FF00141414FF001010FF00FFC1
:1007B0001010F010F0141414FC001414F700FF00D3
:1007C00000FF00FF1414F404FC141417101F101081
:1007D0001F101F1414141F00101010F00000000050
:1007E0001F101010101F10101010F010000000FF4C
:1007F000101010101010101010FF10000000FF1447
:100800000000FF00FF00001F10170000FC04F4149C
:10081000141710171414F404F40000FF00F7141454
:100820001414141414F700F7141414171410101FD0
:10083000101F141414F4141010F010F000001F1006
:100840001F0000001F14000000FC140000F010F056
:100850001010FF10FF141414FF141010101F0000CC
:100860000000F010FFFFFFFFFFF0F0F0F0F0FFFFDF
:10087000FF0000000000FFFF0F0F0F0F0F38444470
:100880003844FC4A4A4A347E02020606027E027E50
:100890000263554941633844443C04407E201E2095
:1008A00006027E020299A5E7A5991C2A492A1C4C3A
:1008B0007201724C304A4D4D303048784830BC623D
:1008C0005A463D3E494949007E0101017E2A2A2AB5
:1008D0002A2A44445F444440514A444040444A51D7
:1008E000400000FF0103E080FF000008086B6B0878
:1008F0003612362436060F090F06000018180000BD
:10090000001010003040FF0101001F01011E0019FE
:100910001D1712003C3C3C3C0000000000000000A1
:1009200008000201000003040700000000000000AE
:100930000000000000240027002A0004E010021C30
:1009400007123732292D29252B3900010310E11018
:10095000031D07062E2C292D2E2E373F00000210D6
:1009600013800A298064022A040000007F2B0400FF
:1009700000007F0F0180961180FFB103012C2DB282
:1009800003012C2DB306012C2D012C2DB40107C021
:1009900003A20284C101C5C2020A00C3028A2AC49A
:1009A000028AEEC5010E20003601C83A01054265F3
:1009B0007374206361702E002043617061636974F9
:1009C000793A00426573742073657474696E673A8E
:1009D0000009206769766573206672657175656EBA
:1009E00063793A200074756E6520616E74656E6E71
:1009F0006120746F20636170616369746F7220009D
:100A0000417272617920636C65617265642E2E2E6D
:100A10002E002E00436C6561722061727261792E26
:100A20002E2E2E00536574757020656E7465726588
:100A3000642E2E2E00436865636B20666F722073F0
:100A400065747570005479706520475320746F2069
:100A5000656E7465722073657475703A00577269BB
:100A600074696E672064656661756C74732E2E2ED2
:100A70002E00537461727420646973706C61790024
:100A8000626567696E6E696E6720626F6F74207051
:100A9000726F6365647572652E2E2E2E002E0050C7
:100AA0006C6179696E67205769746820467573694F
:100AB0006F6E3A20415333393335204C696768747F
:100AC0006E696E672053656E736F722C2053454EAE
:100AD0002D33393030312D523031202076004173A2
:100AE0006C6565700041542B47534C503D00427576
:100AF00074746F6E20707265737365643A00446934
:100B000073706C61793A0053617475726461790035
:100B10004672696461790054687572736461790022
:100B20005765646E657364617900547565736461BB
:100B300079004D6F6E6461790053756E6461790060
:100B400020746F6F2068696768004E6F6973652055
:100B50006C6576656C004E6F697365206C657665B3
:100B60006C20746F6F20686967680020206465746A
:100B700065637465640044697374757262657200BC
:100B80004469737475726265722064657465637418
:100B9000656400204B4D0020446973743A003A00AC
:100BA0003A002000204B4D002020446973742E2011
:100BB000004C696768746E696E6700206B696C6FC2
:100BC0006D6574657273004C696768746E696E67F1
:100BD000206465746563746564212044697374617D
:100BE0006E636520746F20737472696B653A2000C0
:100BF000206E6F742065787065637465640020737F
:100C00006F7572636520726573756C7400696E74BC
:100C100065727275707400696E7465727275707445
:100C200020736F7572636520726573756C74206EC6
:100C30006F74206578706563746564002F0050756B
:100C40006C7365733A004461792020203A00486F44
:100C5000757220203A004D696E7574653A005374C0
:100C60006174733A002A2A2A00536174004672693B
:100C7000005468750057656400547565004D6F6ECB
:100C80000053756E004B4D002000486973746F72FD
:100C9000793A004461792020203A00486F7572202B
:100CA000203A004D696E7574653A00202A00536140
:100CB0007475726461790046726964617900546880
:100CC000757273646179005765646E6573646179E8
:100CD0000054756573646179004D6F6E64617900CD
:100CE00053756E64617900202020202020202A0086
:100CF000202020202A00202A0036300034350033FE
:100D000030003435003330003135003330003135B8
:100D1000004D3A004D61782F6D696E3A004D696E55
:100D2000757465730034380033360032340033365E
:100D300000323400313200323400313200483A009F
:100D40004D61782F686F75723A00486F7572730045
:100D5000333000313500443A004D61782F646179B9
:100D60003A0044617973002020427574746F6E7488
:100D7000696D653A00457363617065642066726FE2
:100D80006D206C6F6F703A00456E657267793A003E
:100D9000222C0041542B43495053544152543D227C
:100DA000544350222C2200556E6C696E6B0D0A0064
:100DB00041542B434950434C4F53450041542B431E
:100DC000495053454E443D003C2D2D2D20004F4BA6
:100DD0000D0A00476F742049503A0044617465263B
:100DE00054696D6520666F756E64002B2B2B2B2B61
:100DF0002B002D2D2D2D2D2D000000000023002671
:100E000000290000000000250028002B0004040435
:100E100004040404040202020202020303030303A3
:100E20000301020408102040800102040810200180
:100E30000204081020006424A53511241FBECFEF42
:100E4000D8E0DEBFCDBF25E0ACEAB2E001C01D9224
:100E5000AC39B207E1F712E0A0E0B1E0E6E1FDE66F
:100E600002C005900D92AC3AB107D9F717E0CCE17A
:100E7000D7E004C02197FE010E943136CB31D10763
:100E8000C9F70E94C5250C947E360C94000080E4BE
:100E900080937C0080917A00806480937A008091B6
:100EA0007A0086FDFCCF80917800909179000895BA
:100EB00081E08093D303089508950895DC01ED91B6
:100EC000FC910190F081E02D0994EF92FF920F9335
:100ED0001F93CF93DF938C017B01D0E0C0E0F7013B
:100EE000EC0FFD1F6491662361F0D801ED91FC9138
:100EF0000190F081E02DC8010995892B11F0219610
:100F0000EECFCE01DF91CF911F910F91FF90EF9027
:100F10000895AF92BF92CF92DF92EF92FF920F931C
:100F20001F93CF93DF936C017B018B01040F151F7F
:100F3000EB015E01AE18BF08C017D10759F06991E7
:100F4000D601ED91FC910190F081E02DC60109954B
:100F5000892B79F7C501DF91CF911F910F91FF90F8
:100F6000EF90DF90CF90BF90AF900895FC01538D2C
:100F7000448D252F30E0842F90E0821B930B541773
:100F800010F0CF96089501970895FC01918D828D00
:100F9000981761F0A28DAE0FBF2FB11D5D968C9199
:100FA000928D9F5F9F73928F90E008958FEF9FEFD8
:100FB0000895FC01918D828D981731F0828DE80F94
:100FC000F11D858D90E008958FEF9FEF0895FC014E
:100FD000918D228D892F90E0805C9F4F821B91091B
:100FE0008F739927089580E994E00E94E70721E034
:100FF000892B09F420E0822F089580E090E0892B6E
:1010000029F00E94F30781110C9400000895FC015F
:10101000A48DA80FB92FB11DA35ABF4F2C91848D59
:1010200090E001968F739927848FA689B7892C93B6
:10103000A089B1898C91837080648C93938D848D09
:10104000981306C00288F389E02D80818F7D80830C
:101050000895EF92FF920F931F93CF93DF93EC01CC
:1010600081E0888F9B8D8C8D98131AC0E889F9894F
:10107000808185FF15C09FB7F894EE89FF89608352
:10108000E889F98980818370806480839FBF81E0D3
:1010900090E0DF91CF911F910F91FF90EF90089515
:1010A000F62E0B8D10E00F5F1F4F0F731127E02EF0
:1010B0008C8D8E110CC00FB607FCFACFE889F98928
:1010C000808185FFF5CFCE010E940708F1CFEB8D1F
:1010D000EC0FFD2FF11DE35AFF4FF0829FB7F894FC
:1010E0000B8FEA89FB8980818062CFCFCF93DF931A
:1010F000EC01888D8823B9F0AA89BB89E889F98930
:101100008C9185FD03C0808186FD0DC00FB607FC64
:10111000F7CF8C9185FFF2CF808185FFEDCFCE0197
:101120000E940708E9CFDF91CF910895833081F0C5
:1011300028F4813099F08230A9F008958730A9F021
:101140008830C9F08430B1F4809180008F7D03C075
:10115000809180008F7780938000089584B58F7789
:1011600084BD089584B58F7DFBCF8091B0008F77CB
:101170008093B00008958091B0008F7DF9CFCF9318
:10118000DF93282F30E0F901E35EF64F8491F901F7
:10119000EF5DF14FD491F901E35FF14FC491CC239E
:1011A000A1F081110E949608EC2FF0E0EE0FFF1FD6
:1011B000E750F24FA591B491EC91ED2381E090E0DE
:1011C00009F480E0DF91CF91089580E090E0FACFBC
:1011D0001F93CF93DF93282F30E0F901E35EF64FA2
:1011E0008491F901EF5DF14FD491F901E35FF14F83
:1011F000C491CC23A9F0162F81110E949608EC2FE0
:10120000F0E0EE0FFF1FED5FF14FA591B4918FB7A6
:10121000F894EC91111108C0D095DE23DC938FBFB8
:10122000DF91CF911F910895DE2BF8CFCF93DF93FD
:1012300090E0FC01EF5DF14F2491835F914FFC0141
:1012400084918823D1F090E0880F991FFC01EF5C16
:10125000F64FA591B491FC01ED5FF14FC591D4918A
:1012600061110EC09FB7F8948C91E22FE0958E2308
:101270008C932881E223E8839FBFDF91CF9108956B
:101280008FB7F894EC91E22BEC938FBFF6CF3FB77A
:10129000F8948091F2029091F302A091F402B0913F
:1012A000F50226B5A89B05C02F3F19F00196A11D98
:1012B000B11D3FBFBA2FA92F982F8827BC01CD01A0
:1012C000620F711D811D911D42E0660F771F881FFF
:1012D000991F4A95D1F708958F929F92AF92BF922E
:1012E000CF92DF92EF92FF926B017C010E9447093F
:1012F0004B015C01C114D104E104F104B9F00E9476
:101300004709681979098A099B09683E7340810574
:10131000910580F321E0C21AD108E108F10888EEB6
:10132000880E83E0981EA11CB11CE4CFFF90EF90C3
:10133000DF90CF90BF90AF909F908F9008952FB780
:10134000F8946091EE027091EF028091F00290911A
:10135000F1022FBF08950E949F0984E98093BC0089
:101360008091BC0084FDFCCF80E00895CF938093F2
:10137000BB000E949F0984E88093BC008091BC0060
:1013800087FFFCCF8091B900887FC0E0883251F0A0
:10139000C091B900C87F8091B900887F803329F45B
:1013A0000E94AB098C2FCF9108951092BC0084E469
:1013B0008093BC00F7CFCF938093BB000E949F091E
:1013C00084E88093BC008091BC0087FFFCCF8091B3
:1013D000B900887F8831E9F08091B900887F803436
:1013E000C1F0C091B900C87F8091B900887F803278
:1013F00069F08091B900887F883441F01092BC0078
:1014000084E48093BC008C2FCF9108950E94AB0997
:10141000FACFC0E0F8CF0E949F0984EA8093BC0015
:101420008091BC0087FFFCCF8091B900887F883015
:10143000B9F08091B900887F803191F08091B90036
:10144000887F883349F48091B900887F1092BC006E
:1014500094E49093BC0008958091B900887F08952A
:1014600080E008951F93CF93DF93182FD62FC42FBA
:1014700010926C040E940B0A80936C04811116C0B8
:10148000812F880F0E94DB0980936C04882321F050
:10149000813061F482E00AC08D2F0E94B6098093EA
:1014A0006C04882339F0813009F483E0DF91CF9117
:1014B0001F9108958C2F0E94B60980936C048111AE
:1014C000F2CF0E94AB0980936C04882379F38130BA
:1014D00069F787E0EBCFCF93C82F0E949F0984EC78
:1014E000C11101C084E88093BC008091BC0087FFDB
:1014F000FCCF8091B900887F883351F48091B90086
:10150000887F1092BC0094E49093BC00CF91089522
:101510008091B900887FFACFCF93DF93D82FC09105
:101520009B0510926B0410926D0410926C040E9443
:101530000B0A80936C04811134C0CC0F8C2F0E9455
:10154000DB0980936C0481112CC08D2F0E94B60999
:1015500080936C04811125C00E940B0A80936C0457
:1015600081111FC081E08C0F0E94DB0980936C0405
:10157000811117C080916D04811125C00E946B0AF2
:1015800080936C04883569F48091BB0080936E046D
:1015900081E080936B0480936A040E94AB0980937E
:1015A0006C0480916B04882359F0E0916A049FEFEA
:1015B000980F90936B04E81BF0E0E459FB4F828195
:1015C000DF91CF91089581E00E946B0A80936C04B3
:1015D0008035D1F2E6CF1F93CF93DF93D82FC62F5C
:1015E000142F0E948C0A4C2F40954823C1234C2B6A
:1015F0006D2F80919B05DF91CF911F910C94320A42
:1016000040E061E080E00E94EB0A46E96DE38091F2
:101610009B050E94320A62E070E080E090E00E9448
:101620006C0940E260E288E00E94EB0A62E070E050
:1016300080E090E00E946C0940E060E288E00C9459
:10164000EB0A6AE070E080E090E00E946C0983E0C1
:101650000E948C0A8F70883031F0843031F08130F4
:1016600031F080E0089581E0089582E0089583E0FC
:1016700008950F931F93CF93DF93EC010E949F096E
:10168000688779878A879B87E881F9810284F38557
:10169000E02DCE01099597FF15C00E949F0908858E
:1016A00019852A853B85601B710B820B930B0C817E
:1016B0001D812E813F81601771078207930720F3F8
:1016C0008FEF9FEFDF91CF911F910F910895DC0174
:1016D0009B96ED91FC919C979081D0968C91892B53
:1016E00080830895DC019996ED91FC919A97908101
:1016F0009F968C918095892380830895DC0199962B
:10170000ED91FC919A9790819F968C91892B808383
:101710000895EF92FF920F931F93DC011A960D919B
:101720001C911B9718962D913C911997ED91FC9166
:1017300000A0F1A1E02D7B0150E040E070E060E00E
:1017400009951F910F91FF90EF90089570E060E070
:1017500088E695E00C94890BFC01838D28E030E04D
:1017600090E8882339F06EBD00000DB407FEFDCF70
:101770008EB50895A5A1B6A185A5462F4923A9F048
:101780004C91842B8C93A7A1B0A58C9146A5842B5A
:101790008C93A7A1B0A54C9186A5809584238C93AA
:1017A00096952150310931F708954C918095842305
:1017B000E9CF08958CBD9DBD08951F93CF93DF930E
:1017C000EC01162F8B8D882331F080918E0490913F
:1017D0008F040E94DA0BCE010E94670BCE010E949B
:1017E000720B612FCE010E94AC0BCE01DF91CF9125
:1017F0001F910C947E0B1F93CF93DF93EC01162F58
:101800008B8D882331F080918E0490918F040E94FB
:10181000DA0BEBA5FCA5908188A9809589238083AC
:10182000CE010E94720B612FCE010E94AC0BCE0143
:10183000DF91CF911F910C947E0BCF92DF92EF92AC
:10184000FF920F931F93CF93DF93EC012196FC013E
:10185000F490FA94FFEFFF1609F432C0FE01649190
:1018600088E695E00E94FB0B6E01F2E0CF0ED11CE2
:10187000FE013196E490CE2DCF778601DC2FD1503A
:1018800048F0F801649188E695E00E94DD0B0F5F57
:101890001F4FF5CFCC0DDD2DD11DE7FEDACF8E0128
:1018A0000F5F1F4FFE01649170E06F3F710511F4EF
:1018B00064EF71E090E080E00E946C09E801C9CF1C
:1018C000DF91CF911F910F91FF90EF90DF90CF901C
:1018D0000895611103C060E20C94FB0B61E2FCCF40
:1018E0001F93CF93DF93EC01162F66E30E94FB0B4F
:1018F00013701D8B8A8D1230B1F1133009F44AC078
:101900001130D1F0823019F068EC843009F460ECC9
:10191000CE010E94DD0B8A8D813061F580E890E078
:101920009B878A879987888789A18BA38AA18CA3A3
:10193000DF91CF911F910895823019F068EA8430C9
:1019400009F460EACE010E94DD0B8A8D813049F5F1
:1019500080E890E0998788879B878A8789A18CA3F4
:101960008AA18BA3E5CF823019F068E0843081F63C
:1019700060E0CECF843039F480EA90E09B878A879C
:1019800080E590E0CFCF80EA90E09B878A8780E86F
:1019900090E0C8CF823019F068E6843099F660E6AE
:1019A000D1CF843039F480EA90E09987888780E548
:1019B00090E0D2CF80EA90E09987888780E890E035
:1019C000CBCFEF92FF920F931F93CF93DF93EC0156
:1019D000E62E142FF22E6AE20E94FB0B60E0CE018D
:1019E0000E94DD0B6BA16E0DCE010E94DD0B60E04D
:1019F000CE010E94DD0B6BA16F0DCE010E94DD0BAD
:101A00006BE2CE010E94FB0B60E0CE010E94DD0B79
:101A10006CA1610FCE010E94DD0B60E0CE010E943F
:101A2000DD0B6CA1600FCE010E94DD0B6CE2CE01DC
:101A3000DF91CF911F910F91FF90EF900C94FB0BD2
:101A4000AF92BF92CF92DF92EF92FF920F931F93CC
:101A5000CF93DF93EC01590168012885398562171E
:101A600073070CF053C08A859B85481759070CF003
:101A70004DC0FB01EA0DFB1D2E173F071CF4590159
:101A8000A61AB70A9A012C0D3D1D821793071CF464
:101A90006C01C41AD50A0FEF040F0C0D2FEF260F9F
:101AA0002A0DCE010E94E10C8B8D882331F08091AC
:101AB0008E0490918F040E94DA0BCE010E94670B76
:101AC000CE010E94720B1C141D049CF4850110169B
:101AD00011065CF46F2DCE010E94AC0B6E2DCE0171
:101AE0000E94AC0B01501109F2CF81E0C81AD10855
:101AF000EACFCE01DF91CF911F910F91FF90EF9030
:101B0000DF90CF90BF90AF900C947E0BDF91CF9180
:101B10001F910F91FF90EF90DF90CF90BF90AF900B
:101B20000895DF92EF92FF920F931F93CF93DF936D
:101B3000EC017901D02E8885998568177907DCF545
:101B40002A853B8542175307B4F59B012E0D3F1D97
:101B5000821793071CF47C01E61AF70A2FEF260F71
:101B60002E0D042FCE010E94E10C8B8D882331F0C5
:101B700080918E0490918F040E94DA0BCE010E9416
:101B8000670BCE010E94720B81E0E81AF10848F061
:101B9000612FCE010E94AC0B6D2DCE010E94AC0BCB
:101BA000F3CFCE01DF91CF911F910F91FF90EF9076
:101BB000DF900C947E0BDF91CF911F910F91FF90DE
:101BC000EF90DF900895DF92EF92FF920F931F93B3
:101BD000CF93DF93EC017901D02E88859985681722
:101BE0007907DCF58A859B8548175907B4F59A0172
:101BF0002E0D3F1D821793071CF47C01E41AF50A91
:101C00000FEF040F0E0D262FCE010E94E10C8B8DDD
:101C1000882331F080918E0490918F040E94DA0B1A
:101C2000CE010E94670BCE010E94720B81E0E81A80
:101C3000F10848F0612FCE010E94AC0B6D2DCE0152
:101C40000E94AC0BF3CFCE01DF91CF911F910F918A
:101C5000FF90EF90DF900C947E0BDF91CF911F915E
:101C60000F91FF90EF90DF900895FF920F931F93D5
:101C7000CF93DF93EC0177FD34C088859985681791
:101C800079077CF557FD2DC08A859B854817590734
:101C900044F5F32E122F01E0040F21E0260FCE01B0
:101CA0000E94E10C8B8D882331F080918E049091FD
:101CB0008F040E94DA0BCE010E94670BCE010E94B6
:101CC000720B6F2DCE010E94AC0B612FCE010E94D2
:101CD000AC0BCE01DF91CF911F910F91FF900C942F
:101CE0007E0BDF91CF911F910F91FF900895FC0122
:101CF0006370658B8481958126813781613039F0ED
:101D0000633029F091878087338722870895318750
:101D100020879387828708952F923F924F925F92F8
:101D20006F927F928F929F92AF92BF92CF92DF92EB
:101D3000EF92FF920F931F93CF93DF93CDB7DEB750
:101D400069970FB6F894DEBF0FBECDBF998F888F0D
:101D50005B011A01D22E1F830E833701C982DC0179
:101D600058962D913C9159972115310509F004C1E0
:101D700018968D919C911997681779070CF0C0C13E
:101D80001A968D919C911B97481759070CF0B8C172
:101D90008C2C912CFB0126E0C29EE00DF11D11243C
:101DA000F987E8871E161F060CF0AAC1A40193E06C
:101DB000440F551F9A95E1F75D874C87CA01820D44
:101DC000931D181619060CF09BC157968C91811122
:101DD00004C05FEA5D1508F4D394A88DB98DED9128
:101DE000FC9111970284F385E02DCD010995F50151
:101DF0003596F98BE88BBB82AA8225018DE194E0B0
:101E00008A199B099C0145E0D49E200D311D1124A7
:101E10003B8B2A8BEA89FB89E40DF51D24913D82D9
:101E20002C82D12CC12C622F70E07F876E87E88DC9
:101E3000F98DA081B18120FF7CC0F981F13009F0DA
:101E400069C01C96ED91FC912E813F81A1014C0D42
:101E50005D1DB201888D998D0995EE85FF85F595FB
:101E6000E7952E2F4FEFC41AD40A6C817D81680D3F
:101E7000791D7D836C8378E0C716D104A1F68FEFBE
:101E8000481A580AAA81BB81A80DB91DBB83AA8331
:101E9000E889F989E415F50509F0BCCF2E813F8169
:101EA00026153705A9F0A88DB98DED91FC91B98162
:101EB000B13009F051C0B5016B5F7F4F0088F189E7
:101EC000E02D830128E030E0A101888D998D0995EE
:101ED000A88DB98DED91FC9111970688F789E02DB9
:101EE000CD0169960FB6F894DEBF0FBECDBFDF916E
:101EF000CF911F910F91FF90EF90DF90CF90BF9007
:101F0000AF909F908F907F906F905F904F903F9099
:101F10002F9009941E96ED91FC91EE80FF80840134
:101F200094014C815D816A817B81888D998D0995B1
:101F300094CF2E813F812615370509F48ECF398144
:101F4000313029F41C96ED91FC9193017FCF1E96C0
:101F5000ED91FC917301E3CF688579856819790962
:101F60000684F785E02D73010C851D859401A10180
:101F7000888D998D0995ACCFF9013496949132975B
:101F800045915491D91AB7E0DB9E400D511D1124A3
:101F9000F90125913491398B288BFA0145905490A1
:101FA000FA01329664903196C4903296149131962B
:101FB00004913981323008F48AC0E12E012E000CE0
:101FC000FF08402F002E000C550B59874887A88D1D
:101FD000B98DED91FC9111970284F385E02DCD012F
:101FE0000995B9818B2E912CE89CC001E99C900D3C
:101FF000F89C900D1124FC01EA0DFB1DFF87EE8774
:102000001C82D12C712C9B868A869101200F311D58
:1020100007FD3A953D8B2C8BA501410F511D17FDF6
:102020005A955F8B4E8B7C1408F052CF872D90E031
:1020300048855985480F591F6A857B85469F9001C1
:10204000479F300D569F300D1124D901A20DB31DAD
:10205000BD87AC87EE85FF85FB83EA83B12CA12C7D
:102060002C893D89280F391F3B8B2A8B8C818A0D47
:10207000A61408F040C0877041F4C2010196E889B7
:10208000F989E40DF51DD4902C01D7FE15C0A88D5B
:10209000B98DED91FC91B981B130F1F40484F585ED
:1020A000E02D2E813F814A895B896E897F896A0D87
:1020B0007B1D888D998D0995DD0CEFEFAE1ABE0A58
:1020C0002A813B81280D391D3B832A83CFCF198676
:1020D0001886F12CE12C7BCF0684F785E02DEE806D
:1020E000FF80840194014C855D856A817B81888DA8
:1020F000998D0995E1CF3C81360D3C83739493CF44
:1021000069960FB6F894DEBF0FBECDBFDF91CF91B9
:102110001F910F91FF90EF90DF90CF90BF90AF9005
:102120009F908F907F906F905F904F903F902F90F7
:102130000895AF92BF92CF92EF92FF920F931F93A9
:10214000CF93DF93EC01262F888D998D009709F0AE
:102150004FC06A30C9F41D861C868C8998E0899F1F
:10216000900111248E859F85820F931F9F878E87F4
:1021700081E090E0DF91CF911F910F91FF90EF9060
:10218000CF90BF90AF9008956D3091F3CC888E8939
:102190008823C1F08C859D85E6E0CE9E800D911D43
:1021A0001124488559854817590764F44E855F8581
:1021B0001D861C86F8E0CF9EC0011124840F951F58
:1021C0009F878E87EA88FB88088919894E855F85F5
:1021D0006C857D85CE010E948C0E2C898C859D8519
:1021E00036E0239F800D911D11249D878C87C0CFE1
:1021F0006A3069F41D861C86FC013696E4912C89B0
:102200008E859F85E29F800D911D1124AFCF6D308B
:1022100009F4AECFFC0134963491631708F4A8CFCB
:102220003196E491E61708F4A3CFFC01329645916C
:102230005491E62FE31BFF0B37E03E9F50013F9F79
:10224000B00C1124A40EB51EF501329634913196CE
:10225000E4913323A1F1EE2391F1CC88F501359679
:10226000E4914E89442301F10E2E000CFF0BE30F85
:10227000F11DCE9EA001CF9E500D11246C857D8551
:10228000460F571F68857985641775076CF44E856E
:102290005F851D861C860696FC018491C89E400DB4
:1022A000511D11245F874E87EA88FB8808891989A8
:1022B0004E855F856C857D85CE010E948C0EF50173
:1022C0003496E4912C898C859D85E29F800D911D2B
:1022D00011248BCF6F927F928F929F92AF92BF9279
:1022E000CF92DF92EF92FF920F931F93CF93DF93E2
:1022F000EC016B015A0139014801E881F98102843E
:10230000F385E02D0995E881F9810288F389E02DB4
:1023100087019301A501B601CE010995A501480DDC
:10232000591D41505109E881F9810288F389E02D56
:102330009301B601CE010995E881F9810088F18900
:10234000E02D9401A501B601CE010995C60CD71C5C
:10235000B60161507109E881F9810088F189E02DA9
:102360009401A501CE010995E881F9810688F789D4
:10237000E02DCE01DF91CF911F910F91FF90EF9053
:10238000DF90CF90BF90AF909F908F907F906F9095
:1023900009946F927F928F929F92AF92BF92CF9249
:1023A000DF92EF92FF920F931F93CF93DF935C0125
:1023B000EB016A01490138018701DC01ED91FC91D3
:1023C0006217730719F5641675062CF0962D872D84
:1023D0003A01C92ED82E9601261937092F5F3F4F93
:1023E000048CF58DE02DA301BE01C5010995DF9197
:1023F000CF911F910F91FF90EF90DF90CF90BF9002
:10240000AF909F908F907F906F90089546155705DD
:1024100091F42617370724F0892D4B01C22FD82FAE
:102420009E01281939092F5F3F4F068CF78DE02D4B
:10243000A601B401DACF0284F385E02D0995D50118
:10244000ED91FC910488F589E02D83019401A601AA
:10245000BE01C5010995D501ED91FC910688F7896A
:10246000E02DC501DF91CF911F910F91FF90EF906B
:10247000DF90CF90BF90AF909F908F907F906F90A4
:102480000994EF92FF920F931F93DC011A960D911E
:102490001C911B9718962D913C911997ED91FC91E9
:1024A00000A0F1A1E02D7B0150E040E070E060E091
:1024B00009951F910F91FF90EF9008954F925F92B1
:1024C0006F927F928F929F92AF92BF92CF92DF9244
:1024D000EF92FF920F931F93CF93DF936C012B0129
:1024E0005A0139014801DC01ED91FC910284F38528
:1024F000E02D0995E201640C751CD601ED91FC916B
:10250000C615D7055CF40088F189E02D8701940198
:10251000A501BE01C60109952196EFCF0688F7896E
:10252000E02DC601DF91CF911F910F91FF90EF90A9
:10253000DF90CF90BF90AF909F908F907F906F90E3
:102540005F904F9009948F929F92AF92BF92CF92DB
:10255000DF92EF92FF920F931F93CF93DF93EC01E3
:102560005B014A016901E881F9810284F385E02D6C
:10257000099595012C0D3D1D21503109E881F98106
:102580000488F589E02D78018401A401B501CE010C
:102590000995E881F9810688F789E02DCE01DF9160
:1025A000CF911F910F91FF90EF90DF90CF90BF9050
:1025B000AF909F908F9009948F929F92AF92BF920D
:1025C000CF92DF92EF92FF920F931F93CF93DF93FF
:1025D000EC015B014A0169017801E881F98102841B
:1025E000F385E02D0995C80CD91C8601015011090D
:1025F000E881F9810488F589E02D9501A401B501F0
:10260000CE010995E881F9810688F789E02DCE0190
:10261000DF91CF911F910F91FF90EF90DF90CF90BE
:10262000BF90AF909F908F9009940895EF92FF9282
:102630000F931F93DC01ED91FC9100A0F1A1E02D1F
:1026400009951F910F91FF90EF9008950F931F939D
:10265000DC01ED91FC91068CF78DE02D09951F9121
:102660000F9108950F931F93DC01ED91FC91048C61
:10267000F58DE02D09951F910F910895DC01ED91E5
:10268000FC910084F185E02D09942F923F924F92A6
:102690005F926F927F928F929F92AF92BF92CF92F2
:1026A000DF92EF92FF920F931F93CF93DF9300D0AF
:1026B00000D000D0CDB7DEB73C016A013E832D8348
:1026C000FC82EB825801A41AB50AB7FE03C0B1948C
:1026D000A194B1088D809E80861A970A97FE03C048
:1026E0009194819491088A149B045CF0902F812F1F
:1026F0000D811E819D838E839C2D8D2D6B01692FF5
:10270000782F0C151D055CF09D818E817E836D8375
:10271000692F782F902F812F8601C92ED82E160170
:10272000201A310A2B012D813E81421A530A57FE8D
:1027300003C0519441945108710137FE03C03FEF2B
:10274000E31AF30AF594E7948D819E818617970723
:102750005CF5A1E0B0E0BA83A983C016D1064CF1C4
:10276000D301ED91FC910484F585E02D2B813C8112
:10277000A8016D817E818A149B041CF04D815E81CD
:10278000B801C3010995E418F508F7FE0AC02D81C8
:102790003E8189819A81280F391F3E832D83E20C67
:1027A000F31C0F5F1F4FD9CF2FEF3FEF3A832983E1
:1027B000D4CF26960FB6F894DEBF0FBECDBFDF9103
:1027C000CF911F910F91FF90EF90DF90CF90BF902E
:1027D000AF909F908F907F906F905F904F903F90C1
:1027E0002F9008951F93CF93DF93EC01162F8E81C6
:1027F0009F81009799F02B8D211106C067E174E04D
:102800000E94650781E08B8F8E819F81DC01ED91B5
:10281000FC910190F081E02D612F09958C819D81C3
:10282000DC01ED91FC910190F081E02D612FDF91B1
:10283000CF911F91099408952091F9023091FA02E5
:102840002817390771F49091F7028091F8029817D0
:1028500041F0E091F702F0E0E355FD4F808190E018
:1028600008958FEF9FEF0895EF92FF920F931F93BC
:10287000CF93DF93DC015C96ED90FC905D97E114C3
:10288000F10479F481E090E013969C938E93129773
:1028900090E080E0DF91CF911F910F91FF90EF903A
:1028A00008955196ED91FC91529750968C915097C6
:1028B000982F90950FB75E962C915E97122F1270FD
:1028C00021FD6095F8942081112319F1282B208394
:1028D000E7012197F1F728E0462F50E0308160FFB3
:1028E0001AC0382B3083E7012197F1F7BA017595AB
:1028F0006795215089F7112381F080818923808396
:102900000FBF5C968D919C910197F1F781E090E06B
:10291000C1CF2923DCCF3923E5CF9081892BEFCF9D
:102920002091F9023091FA022817390771F4809149
:10293000F8022091F70290E0805C9F4F821B910982
:1029400060E470E00E94FB35089590E080E0089517
:102950002091F9023091FA0228173907B9F49091C1
:10296000F7028091F802981789F0E091F702F0E001
:10297000E355FD4F80812091F70230E02F5F3F4FFC
:102980002F7333272093F70290E008958FEF9FEF86
:10299000089590E080E00895EF92FF920F931F93C7
:1029A000EE24EA9487E0F82E0CE210E028E530E00F
:1029B0004AE250E066E570E088E695E00E94C911C1
:1029C00028E530E04EE250E066E570E088E695E00C
:1029D0000E94C9111F910F91FF90EF900895CF931E
:1029E000DF93CAE0D0E080E994E00E94E707181680
:1029F00019062CF480E994E00E94C507F4CF2197D2
:102A000091F7DF91CF910895EF92FF920F931F936B
:102A1000CF93DF930E94EF141092EA0310E000E0DE
:102A2000F12CD0E0C0E08AE0E82EDD3061F180E9F1
:102A300094E00E94E70718161906BCF780E994E0B5
:102A40000E94C507D82F80ED8D0F8A3090F4F801D1
:102A5000E651FC4FD0830F5F1F4F6D2F80E994E04C
:102A60000E9429088D2FCE9D800D1124C82FC053A0
:102A7000DCCFDD32D1F66DE280E994E00E942908D6
:102A8000FF24F394D4CFF801E651FC4F1082F110EB
:102A9000C1950E94EF148C2FDF91CF911F910F9160
:102AA000FF90EF900895EF92FF920F931F93CF93B3
:102AB000DF937C010E94EF141092EA03D0E0C0E0A3
:102AC0008E0106511C4FF80180818D30E9F0CE1542
:102AD000DF05D4F480E994E00E94E7071816190690
:102AE00094F780E994E00E94C507F80180838D3057
:102AF00011F08A3019F421972196E2CF682F80E9EE
:102B000094E00E942908F8CFF8011082DF91CF915C
:102B10001F910F91FF90EF900C94EF14FB01019027
:102B20000020E9F73197AF01461B570BDC01ED910F
:102B3000FC910280F381E02D09948F929F92AF92D5
:102B4000BF92EF92FF920F931F93CF93DF93CDB776
:102B5000DEB7A1970FB6F894DEBF0FBECDBF7C01E4
:102B6000FA01CB0119A2223008F42AE08E010F5D90
:102B70001F4F822E912CB12CA12CBF01A5019401D5
:102B80000E940F36F901CA016A300CF5605DD80168
:102B90006E938D01232B242B252B79F790E080E079
:102BA000109721F0BD01C7010E948E15A1960FB6A6
:102BB000F894DEBF0FBECDBFDF91CF911F910F9173
:102BC000FF90EF90BF90AF909F908F900895695CB9
:102BD000DECFCF92DF92EF92FF920F931F93CF93AE
:102BE000DF936B01770FEE08FF08F7FE1BC0EC01C7
:102BF0006DE20E945E078C0144275527BA014C19EB
:102C00005D096E097F092AE0CE010E949D15800FA3
:102C1000911FDF91CF911F910F91FF90EF90DF9067
:102C2000CF9008952AE0B701A601DF91CF911F91BF
:102C30000F91FF90EF90DF90CF900C949D15EF9245
:102C4000FF920F931F93CF93DF93C8E6D5E01D86C5
:102C50001C868DE290E09F878E8764E670E0CE014F
:102C60000E94E9151D861C8681E490E09F878E876F
:102C70006BE470E0CE010E94E9151D861C8685E597
:102C800090E09F878E8762E370E0CE010E94E91595
:102C90001D861C8689E690E09F878E8769E170E03B
:102CA000CE010E94E915E12C88EFF82E0CE210E02D
:102CB00029E130E04CE250E064E170E0CE010E9496
:102CC000C91100E410E029E130E040E450E064E1A3
:102CD00070E0CE010E94C91104E510E029E130E066
:102CE00044E550E064E170E0CE010E94C91108E6BD
:102CF00010E029E130E048E650E064E170E0CE0108
:102D00000E94C9110EE610E029E530E04EE650E0E1
:102D100069E170E0CE010E94C9110FE610E029E5DB
:102D200030E04FE650E069E170E0CE010E94C91149
:102D30000EE610E029E130E04CE250E069E170E09D
:102D4000CE010E94C9110FE610E028E130E04CE20C
:102D500050E068E170E0CE010E94C9111D861C861A
:102D60001F861E86DF91CF911F910F91FF90EF90EC
:102D70000895CF93DF930E94A60BC8E6D5E080EEBE
:102D80009FEF9B8B8A8B998B888B82E08C8B1D8627
:102D90001C861F861E8662E870E0CE010E946507D1
:102DA00081E08C8B8FEF9FEF9B8B8A8B998B888B2D
:102DB0001D861C8680E190E09F878E8766E770E025
:102DC000CE010E9465071D861C8688E190E09F87E2
:102DD0008E876AE670E0CE010E94650762E070E0CF
:102DE000CE010E94E91568E670E0CE010E946507F9
:102DF00066E070E0CE01DF91CF910C94E915462F8B
:102E000050E070E060E02AE00C949D1569EA71E002
:102E10000C948E150F931F93CF93DF93EC010E94B8
:102E2000E9158C01CE010E940617800F911FDF91DA
:102E3000CF911F910F910895CF93DF93BC0180E94B
:102E400094E00E948E15EC0180E994E00E94061740
:102E50008C0F9D1FDF91CF910895CF93DF93682F43
:102E600080E994E00E94FF16EC0180E994E00E9462
:102E700006178C0F9D1FDF91CF9108950F931F931D
:102E8000CF93DF93EC010E9465078C01CE010E9475
:102E90000617800F911FDF91CF911F910F91089519
:102EA000CF92DF92EF92FF920F931F93CF93DF9316
:102EB00062EF7DE080E994E00E943E171092EA0301
:102EC0000E949F09D0E0C0E06B017C0124EFC20E9C
:102ED00021E0D21EE11CF11C0E949F09FE01E65177
:102EE000FC4F6C157D058E059F0598F48F0189E4D4
:102EF00095E00E949014892B79F3CD37D10564F7C2
:102F000089E495E00E94A814D8018D938D01219643
:102F1000EECF1082CD2B09F4A0C08AEE93E00E9480
:102F20001C176BEE7DE080E994E00E943E176CEA8E
:102F300071E08AEE93E00E946436892B09F4E3C0C5
:102F40006BED7DE080E994E00E94650780E994E004
:102F50000E94061780914C01D091E903A091E803EB
:102F60004091E70370E060E030E020E0CAE0F90162
:102F7000E651FC4F90819A3339F46115710521F4C3
:102F80002F5F3F4F61E070E0F901E651FC4F908107
:102F90009A3309F07AC06130710509F076C0528128
:102FA000533589F49381953721F494819E3609F441
:102FB00081E09381913609F064C09481943709F0DF
:102FC00060C087E05EC05D3451F493819F3609F0A4
:102FD00058C094819E3609F054C082E052C05435E6
:102FE00009F044C09381953709F0C1C094819536AA
:102FF00009F047C083E045C09381953609F041C090
:1030000094819436F1F584E03CC098519093E903A3
:103010008F5F883018F480934C0175C081E0FBCF3E
:10302000209709F0A2C0EC01A0C0BC019EC0CE0157
:10303000861B970B40978CF46C177D0774F46F5FB9
:103040007F4FC61BD70B66517C4FAE0185ED93E0D9
:103050000E945036CB52DC4F1882DF91CF911F91E6
:103060000F91FF90EF90DF90CF900895573521F2A8
:10307000563439F49381923721F49481993609F4C6
:1030800086E02F5F3F4F62E070E0F901E651FC4FB0
:1030900090819A3321F56230710509F52F5F3F4F1A
:1030A000DF0112974C91405311969C919053D92F68
:1030B0004C9FD00D1124A90146515C4FDA019C911F
:1030C0009053A281A0539C9FA00D11245481505372
:1030D000458140535C9F400D112463E070E02F5FF9
:1030E0003F4F203831050CF442CF80934C01A09320
:1030F000E8034093E703909148019D0F983108F051
:1031000084CF9093E90362EB71E08AEE93E00E9432
:103110006436892B09F4A1CF63ED7DE080E994E06A
:103120000E94650770E060E080E994E00E940A1761
:103130008AEE93E00E941C17EAEEF3E0D0E0C0E0D4
:1031400070E060E090E080E02191222309F46FCFED
:103150008D37910509F46BCF223239F46115710571
:1031600009F05ECF209709F460CF0196EDCF983635
:1031700009F087CF9481953709F083CF85E081CF1F
:103180000C948E154FE0893738F4482F50E083E0D7
:10319000559547958A95E1F76FE088E00E94EB0A24
:1031A00068EB71E080E994E00E94C01888E00E941A
:1031B0008C0A8F70682F70E080E994E00C940A17F5
:1031C000CF92DF92EF92FF926EEC71E080E994E093
:1031D0000E94C01880E00E948C0A0E942D1769EDA1
:1031E00071E080E994E00E94C01881E00E948C0A9E
:1031F0000E942D1764EE71E080E994E00E94C018EF
:1032000082E00E948C0A0E942D176FEE71E080E927
:1032100094E00E94C01883E00E948C0A0E942D173F
:103220006AEF71E080E994E00E94C01884E00E9497
:103230008C0A0E942D1765E072E080E994E00E94FC
:10324000C01885E00E948C0A0E942D1760E172E090
:1032500080E994E00E94C01886E00E948C0A0E94D7
:103260002D176BE172E080E994E00E94C01887E0BE
:103270000E948C0A0E942D1766E272E080E994E0B9
:103280000E94C01888E00E948C0A0E942D1786E0D8
:103290000E948C0AC82ED12CDC2CCC24CC248FE1AB
:1032A000D8220D2C000CEE08FF0885E00E948C0A45
:1032B000C82AFE2CED2CDC2CCC2484E00E948C0A45
:1032C000C82A68E87DE080E994E00E9465072AE06A
:1032D000B701A60180E994E00E949D1580E994E081
:1032E000FF90EF90DF90CF900C9406170E94A60BF2
:1032F0008FEF97E090937B0580937A059093790503
:103300008093780582E080937C0510927505109279
:103310007405109277051092760566ED70E088E6E8
:1033200095E00E94650781E080937C058FEF9FEF19
:1033300090937B0580937A05909379058093780527
:103340006FEC70E088E695E00E9465078091C40309
:10335000882309F469C060910B0188E695E00E941A
:10336000FF16109275051092740580E190E090931D
:103370007705809376058091C303882309F45BC0A9
:1033800065ED73E088E695E00E94C018109275051F
:103390001092740588E190E090937705809376050C
:1033A00069EB70E088E695E00E94650768E371E0EC
:1033B00088E695E00E94C018109275051092740579
:1033C00080E290E0909377058093760563EB70E060
:1033D00088E695E00E946507809142016BEA70E003
:1033E000813011F063EA70E088E695E00E9465079D
:1033F000109275051092740588E290E0909377051D
:10340000809376056DE970E088E695E00E94650797
:103410008091430165E970E0813011F06CE870E063
:1034200088E695E00C9465076DEC70E088E695E021
:103430000E94650796CF6FEB70E088E695E00E94EA
:103440006507A4CF8F929F92AF92BF92CF92DF92E7
:10345000EF92FF920F931F93CF93DF938C01892BF1
:1034600011F40EEC1DE0C8010E94C135D82F8091E7
:10347000330590913405009751F02091480522239F
:1034800031F068EC7DE00E946507109248050E94CB
:103490009F096B017C01C0E080913105909132055C
:1034A000DC01ED91FC910284F385E02D09955C012E
:1034B0001816190604F5809133059091340500978C
:1034C00041F0DC01ED91FC910190F081E02D6A2D3D
:1034D0000995F801EC0FF11DE491EA151B0429F49C
:1034E000CF5FDC1303C0C1E01BC0C0E00E949F0996
:1034F0006B017C01D1CF0E949F096C197D098E0957
:103500009F098090350590903605A0903705B090C2
:10351000380586169706A806B90608F0BDCFC0E0A4
:103520008091310590913205DC01ED91FC91008490
:10353000F185E02D0995892B61F0809131059091FD
:103540003205DC01ED91FC910680F781E02D0995B3
:10355000E7CF80913305909134050E9406178C2F98
:10356000DF91CF911F910F91FF90EF90DF90CF905F
:10357000BF90AF909F908F900895CF93DF93EC0111
:103580006CEB7DE08DE295E00E946507AE0170E096
:1035900060E02AE08DE295E00E949D158DE295E0C5
:1035A0000E94061790E080E0DF91CF910C94221AE0
:1035B00060EB7DE08DE295E00E943E1787EA9DE09A
:1035C0000C94221ACF92DF92EF92FF92CF93DF9367
:1035D000EC0163E97DE08DE295E00E946507BE01A4
:1035E0008DE295E00E94650760E97DE08DE295E05F
:1035F0000E94650760E570E08DE295E00E940A1781
:10360000C0903505D0903605E0903705F09038052C
:1036100080913D0590913E05A0913F05B0914005F8
:103620000097A105B10541F08093350590933605CB
:10363000A0933705B093380588E893E1A0E0B0E0A7
:103640008093390590933A05A0933B05B0933C05D0
:1036500088E99AE3A0E0B0E080933D0590933E05B1
:10366000A0933F05B093400590E080E00E94221AAD
:10367000C114D104E104F10441F0C0923505D092A7
:103680003605E0923705F092380548E853E160E0EE
:1036900070E04093390550933A0560933B05709371
:1036A0003C0548E95AE360E070E040933D055093E3
:1036B0003E0560933F0570934005882361F0D093E9
:1036C0004705C093460581E0DF91CF91FF90EF90D1
:1036D000DF90CF90089580E0F7CF4F925F926F9286
:1036E0007F928F929F92AF92BF92CF92DF92EF9292
:1036F000FF920F931F93CF93DF93CDB7DEB7DA9589
:103700000FB6F894DEBF0FBECDBF1092C303109268
:10371000D40365E673E080E994E00E943E1780914F
:10372000450587FD94C0C0903505D0903605E090E2
:103730003705F09038058091390590913A05A091B0
:103740003B05B0913C050097A105B10541F0809380
:10375000350590933605A0933705B093380588E872
:1037600093E1A0E0B0E08093390590933A05A093EF
:103770003B05B0933C0588E99AE3A0E0B0E0809374
:103780003D0590933E05A0933F05B093400510E0A2
:1037900000E065E072E080913305909134050E946D
:1037A00065070F5F1F4FB801809133059091340575
:1037B0000E940A1760E0809145050E94E80861E0D8
:1037C000809145050E94160964E670E080E090E073
:1037D0000E946C0960E0809145050E94160962E331
:1037E00070E080E090E00E946C098FEF91E00E9411
:1037F000221A0530110509F020C2C114D104E104D8
:10380000F10441F0C0923505D0923605E0923705BB
:10381000F092380548E853E160E070E040933905E4
:1038200050933A0560933B0570933C0548E95AE391
:1038300060E070E040933D0550933E0560933F0586
:103840007093400563E872E0882309F41BC267E5C2
:1038500073E080E994E00E943E17C0903505D09057
:103860003605E0903705F090380580913905909144
:103870003A05A0913B05B0913C050097A105B10523
:1038800041F08093350590933605A0933705B093AA
:10389000380538E8832E33E1932EA12CB12C809289
:1038A000390590923A05A0923B05B0923C0548E953
:1038B000442E4AE3542E612C712C40923D055092C7
:1038C0003E0560923F057092400562E272E08DE233
:1038D00095E00E943E1790E080E00E94221A882323
:1038E00009F4D8C16FE172E08DE295E00E943E17C5
:1038F00090E080E00E94221A6AE172E08DE295E099
:103900000E943E1790E080E00E94221AC114D10468
:10391000E104F10441F0C0923505D0923605E09201
:103920003705F092380598E8892E93E1992EA12C5D
:10393000B12C8092390590923A05A0923B05B09245
:103940003C0528E9C22E2AE3D22EE12CF12CC092AC
:103950003D05D0923E05E0923F05F0924005882358
:1039600009F4AEC167E473E080E994E00E943E1779
:1039700088EE93E0A0E0B0E08093350590933605A3
:10398000A0933705B09338058092390590923A0597
:10399000A0923B05B0923C05C0923D05D0923E05F9
:1039A000E0923F05F092400561E373E080E994E026
:1039B0000E943E178091330590913405009751F095
:1039C00020914805222331F069E272E00E946507E8
:1039D00010924805A0903105B0903205CE010196B5
:1039E0006C0110E000E07C01C5010E94390B97FDDD
:1039F0000BC08D30910541F0D6018D936D010F5FA5
:103A00001F4F0F3F110581F70E0D1F1DF80110828A
:103A10008091310590913205DC01ED91FC91028499
:103A2000F385E02D09950A9799F76AE472E08DE233
:103A300095E00E943E1790E080E00E94221A8823C1
:103A400009F425C16FE372E08DE295E00E946507FD
:103A50006DE071E08DE295E00E94C0186BE372E0CA
:103A60008DE295E00E9465076DE171E08DE295E0E1
:103A70000E94C01862E28DE295E00E945E078DE22E
:103A800095E00E940617C0903505D0903605E0906D
:103A90003705F090380580913D0590913E05A09145
:103AA0003F05B09140050097A105B10541F0809315
:103AB000350590933605A0933705B093380588E80F
:103AC00093E1A0E0B0E08093390590933A05A0938C
:103AD0003B05B0933C0588E99AE3A0E0B0E0809311
:103AE0003D0590933E05A0933F05B093400590E0BF
:103AF00080E00E94221AC114D104E104F10441F0D3
:103B0000C0923505D0923605E0923705F09238051F
:103B100048E853E160E070E04093390550933A057E
:103B200060933B0570933C0548E95AE360E070E020
:103B300040933D0550933E0560933F0570934005CB
:103B4000882309F4A4C06FE272E08DE295E00E9440
:103B50003E1790E080E00E94221A882309F497C063
:103B60006AE173E080E994E00E943E1766E572E046
:103B70008DE295E00E943E1790E080E00E94221ABC
:103B8000882309F47DC081E08093C3036FE572E070
:103B90008DE295E00E943E1790E080E00E94221A9C
:103BA00064EF72E0882311F06BE073E080E994E049
:103BB0000E943E176EE672E08DE295E00E943E178D
:103BC00090E080E00E94221A69ED72E081115AC0F3
:103BD0008091C303882309F476C06AE772E089E420
:103BE00095E00E943E170E9450178091E9038111D1
:103BF00002C00E947A1E8091E903811102C00E94D6
:103C00007A1E8091E90381115EC0D3950FB6F894B6
:103C1000DEBF0FBECDBFDF91CF911F910F91FF90FF
:103C2000EF90DF90CF90BF90AF909F908F907F905C
:103C30006F905F904F900C947A1E882309F4A9CD61
:103C400081E0C114D104E104F10409F0DBCD88E87E
:103C500093E1A0E0B0E08093390590933A05A093FA
:103C60003B05B0933C0588E99AE3A0E0B0E080937F
:103C70003D0590933E05A0933F05B0934005E7CDE9
:103C800064EC72E080E994E00E943E17A1CF61EB02
:103C900072E0F8CFC114D104E104F10409F03BCE85
:103CA0008092390590923A05A0923B05B0923C056E
:103CB00040923D0550923E0560923F05709240054E
:103CC0006AE972E0DFCFD3950FB6F894DEBF0FBE7E
:103CD000CDBFDF91CF911F910F91FF90EF90DF90BB
:103CE000CF90BF90AF909F908F907F906F905F909C
:103CF0004F9008958091D40381110E946D1B809193
:103D0000C303882321F186E094E00E94E21A88230D
:103D1000E1F00E94501784E390E00E94BD1A8823CE
:103D2000A1F067ED73E089E495E00E943E1789E415
:103D300095E00E94061789E495E00E9406170E940C
:103D400050170E9450170E9450170C94D81A0895CB
:103D50000F931F93CF93DF93082F162F8091D403D7
:103D600081110E946D1B8091C303882309F453C005
:103D700086EC93E00E94E21A882309F446C0C0E66C
:103D8000D0E01A3010F4CFE5D0E0BE0180E994E035
:103D90000E940A17CE010E94BD1A8823B1F16AEA77
:103DA00073E089E495E00E94650768E371E089E4C7
:103DB00095E00E94C01860EA73E089E495E00E94F3
:103DC0006507602F89E495E00E94FF1665E973E0BE
:103DD00089E495E00E946507612F89E495E00E94DF
:103DE000FF1663E773E089E495E00E943E1789E4DB
:103DF00095E00E94061789E495E00E9406170E944C
:103E000050170E9450170E945017DF91CF911F91B9
:103E10000F910C94D81ADF91CF911F910F910895B3
:103E20000F931F93CF93DF9390E080E00E94CA35F9
:103E300090910C0198130EC00CE011E0D0E0C0E0AE
:103E4000CE010E94CA35F80181938F012196C034BA
:103E5000D105B1F7DF91CF911F910F9108950E9485
:103E60004B360F931F93CF93DF930CE011E0D0E01C
:103E7000C0E0F80161918F01CE010E94D2352196F8
:103E8000C034D105B1F7DF91CF911F910F91089503
:103E9000CF93C82F6CED71E080E994E00E94650734
:103EA0006DE071E080E994E00E94C01869ED71E076
:103EB00080E994E00E946507CC2389F08FE090E0D0
:103EC0000E9453158091EA03882309F4A3C110923C
:103ED0000D016AEE73E08DE091E00E94593680E9B1
:103EE00094E00E9406176EEC71E080E994E00E9475
:103EF00065076DE171E080E994E00E94C0186BEC09
:103F000071E080E994E00E946507CC2309F499C12F
:103F10008AE190E00E9453158091EA03882309F416
:103F2000A7C110921D016AEE73E08DE191E00E943D
:103F3000593680E994E00E94061764EC71E080E94C
:103F400094E00E94650768E371E080E994E00E94D4
:103F5000C01861EC71E080E994E00E946507CC2311
:103F600081F089E090E00E9453158091EA03882354
:103F700041F0109238016AEE73E088E391E00E940C
:103F8000593680E994E00E94061767EA71E080E9FB
:103F900094E00E946507809142016FE971E08823F7
:103FA00011F066E971E080E994E00E94650762E93A
:103FB00071E080E994E00E946507CC2339F00E940B
:103FC00004159091EA0391118093420180E994E0F5
:103FD0000E94061760E871E080E994E00E9465079E
:103FE0008091430167E771E0882311F06FE671E08B
:103FF00080E994E00E9465076BE671E080E994E057
:104000000E946507CC2349F00E9404159091EA03B1
:10401000992309F444C18093430180E994E00E940C
:10402000061761E671E080E994E00E9465076091FF
:10403000440180E994E00E94FF166EE571E080E99A
:1040400094E00E946507CC2349F00E9404159091EA
:10405000EA03992309F43AC18093440180E994E08A
:104060000E94061763E571E080E994E00E9465070D
:104070006091450180E994E00E94FF1660E571E0DF
:1040800080E994E00E946507CC2349F00E94041562
:104090009091EA03992309F430C18093450180E9A6
:1040A00094E00E9406176BE371E080E994E00E94BF
:1040B00065076091460180E994E00E94FF1668E37D
:1040C00071E080E994E00E946507CC2309F443C1C4
:1040D0000E9404159091EA03992309F425C1809365
:1040E000460180E994E00E94061767E171E080E9EB
:1040F00094E00E9465076091470180E994E00E9486
:10410000FF1664E171E080E994E00E946507CC232A
:1041100009F437C10E9404159091EA03992309F428
:1041200079C18093470180E994E00E94061762E01C
:1041300071E080E994E00E94650760914801709108
:10414000490180E994E00E94E9156FEF70E080E991
:1041500094E00E946507CC2309F42BC10E9404154A
:104160009091EA03992309F46EC190E0909349017C
:104170008093480180E994E00E9406176CEE70E09D
:1041800080E994E00E94650760914A0180E994E02B
:104190000E94FF1669EE70E080E994E00E946507D6
:1041A000CC2309F41CC10E9404159091EA039923C1
:1041B00009F460C180934A0180E994E00E940617E7
:1041C0006FED70E080E994E00E94650760914B011B
:1041D00080E994E00E94FF166CED70E080E994E0C5
:1041E0000E946507CC2309F410C10E940415909128
:1041F000EA03992309F455C180934B0180E994E0C7
:104200000E940617CC2309F451C10E94311FCF919F
:104210000C94101F80E994E00E9406176EEC71E088
:1042200080E994E00E9465076DE171E080E994E027
:104230000E94C0186BEC71E080E994E00E94650771
:1042400067CE80E994E00E94061764EC71E080E993
:1042500094E00E94650768E371E080E994E00E94C1
:10426000C01861EC71E080E994E00E94650789CE96
:1042700080E994E00E94061764EC71E080E994E024
:104280000E94650768E371E080E994E00E94C0182D
:1042900061EC71E080E994E00E94650762CE80E9FC
:1042A00094E00E94061761E671E080E994E00E94C4
:1042B00065076091440180E994E00E94FF166EE575
:1042C00071E080E994E00E946507BFCE80E994E048
:1042D0000E94061763E571E080E994E00E9465079B
:1042E0006091450180E994E00E94FF1660E571E06D
:1042F00080E994E00E946507C9CE80E994E00E94BD
:1043000006176BE371E080E994E00E946507609115
:10431000460180E994E00E94FF1668E371E080E9BD
:1043200094E00E946507D4CE80E994E00E940617CD
:1043300067E171E080E994E00E94650760914701C0
:1043400080E994E00E94FF1664E171E080E994E066
:104350000E946507DFCE80E994E00E94061767E1BE
:1043600071E080E994E00E9465076091470180E96F
:1043700094E00E94FF1664E171E080E994E00E94FD
:10438000650780E994E00E94061762E071E080E929
:1043900094E00E946507609148017091490180E9AD
:1043A00094E00E94E9156FEF70E080E994E00E94CC
:1043B000650780E994E00E9406176CEE70E080E9E2
:1043C00094E00E94650760914A0180E994E00E94B0
:1043D000FF1669EE70E080E994E00E94650780E9CD
:1043E00094E00E9406176FED70E080E994E00E946F
:1043F000650760914B0180E994E00E94FF166CED27
:1044000070E080E994E00E94650780E994E0CF9134
:104410000C94061780E994E00E94061762E071E0B0
:1044200080E994E00E94650760914801709149011C
:1044300080E994E00E94E9156FEF70E080E994E074
:104440000E9465078BCE80E994E00E9406176CEE0F
:1044500070E080E994E00E94650760914A0180E97C
:1044600094E00E94FF1669EE70E080E994E00E94FB
:10447000650799CE80E994E00E9406176FED70E021
:1044800080E994E00E94650760914B0180E994E027
:104490000E94FF166CED70E080E994E00E946507D1
:1044A000A4CE80E994E00E940617AFCECF91089584
:1044B0001F920F920FB60F9211242F933F934F9399
:1044C0005F936F937F938F939F93AF93BF93EF937C
:1044D000FF9380E994E00E940708FF91EF91BF915C
:1044E000AF919F918F917F916F915F914F913F918C
:1044F0002F910F900FBE0F901F9018951F920F9243
:104500000FB60F9211242F938F939F93EF93FF93E6
:10451000E091A004F091A1048081E091A604F091C3
:10452000A70482FD1BC090818091A9048F5F8F73C7
:104530002091AA04821741F0E091A904F0E0E0572D
:10454000FB4F958F8093A904FF91EF919F918F91DD
:104550002F910F900FBE0F901F9018958081F4CF70
:104560001F920F920FB60F9211242F933F938F93A8
:104570009F93AF93BF938091EE029091EF02A09131
:10458000F002B091F1023091ED0223E0230F2D37BC
:1045900058F50196A11DB11D2093ED028093EE0206
:1045A0009093EF02A093F002B093F1028091F20297
:1045B0009091F302A091F402B091F5020196A11D31
:1045C000B11D8093F2029093F302A093F402B09392
:1045D000F502BF91AF919F918F913F912F910F90D5
:1045E0000FBE0F901F90189526E8230F0296A11D6D
:1045F000B11DD2CF1F920F920FB60F9211242F939D
:104600003F934F935F936F937F938F939F93AF935A
:10461000BF93EF93FF93E0910501F0910601099597
:10462000FF91EF91BF91AF919F918F917F916F918A
:104630005F914F913F912F910F900FBE0F901F9060
:1046400018951F920F920FB60F9211242F933F933C
:104650004F935F936F937F938F939F93AF93BF938A
:10466000EF93FF93E0910301F09104010995FF910D
:10467000EF91BF91AF919F918F917F916F915F91DA
:104680004F913F912F910F900FBE0F901F90189553
:104690001F920F920FB60F9211242F933F934F93B7
:1046A0005F936F937F938F939F93AF93BF93EF939A
:1046B000FF93E091F902F091FA02309749F0A68554
:1046C000B7858585968D91FF14C09C918923A1F4AF
:1046D000FF91EF91BF91AF919F918F917F916F91DA
:1046E0005F914F913F912F910F900FBE0F901F90B0
:1046F00018959C91892361F7A389B4899C91858938
:10470000809589238C93868997890197F1F7608D2D
:10471000718DA685B785558538E020E0CB010197DE
:10472000F1F7822F90E095958795282F4C9145239E
:1047300009F02068315091F7868D81FD2095809198
:10474000F80290E001968F7399273091F70238179D
:1047500099F0A091F802B0E0A355BD4F2C9380933F
:10476000F802828D938D0197F1F7A389B4898C911A
:104770009589892B8C93ACCF868D8160868FF1CF04
:104780001F920F920FB60F9211242F933F934F93C6
:104790005F936F937F938F939F93AF93BF93EF93A9
:1047A000FF938EEE95E8909385008093840080912E
:1047B000AC028F5F8A37B0F58093AC028091AC0277
:1047C00086958093E7038C33E1F41092AC0210924B
:1047D000E7038091E8038F5F8093E80369EA72E062
:1047E00080E994E00E94C0188091E8038C3349F47A
:1047F0001092E8038091E9038F5F8831B1F08093D4
:10480000E903FF91EF91BF91AF919F918F917F91BC
:104810006F915F914F913F912F910F900FBE0F902D
:104820001F9018951092AC02C9CF1092E9038091A5
:104830004C018F5F883019F080934C01E2CF81E00A
:10484000FBCF1F920F920FB60F9211242F933F931D
:104850004F935F936F937F938F939F93AF93BF9388
:10486000EF93FF93A8958091CA039091CB03019693
:104870009093CB038093CA0363EE71E080E994E0E8
:104880000E9465076091CA037091CB0380E994E0B0
:104890000E940A178091CA039091CB030A9719F4DA
:1048A000F0E0E0E00995FF91EF91BF91AF919F910A
:1048B0008F917F916F915F914F913F912F910F90C9
:1048C0000FBE0F901F901895CF92DF92EF92FF923C
:1048D000CF93109293041092920498EEC92E93E015
:1048E000D92EE12CF12CC0929404D0929504E09240
:1048F0009604F092970481E591E09093910480935F
:10490000900485EC90E090939D0480939C0484EC4B
:1049100090E090939F0480939E0480EC90E09093AD
:10492000A1048093A00481EC90E09093A304809371
:10493000A20482EC90E09093A5048093A40486ECFA
:1049400090E09093A7048093A6041092A90410927B
:10495000AA041092AB041092AC0480E580938E04FC
:1049600010928F0483E080939B05C9E0C0939A0561
:1049700082E08093990561E089E00E94160960E079
:10498000809199050E94160961E080919A050E9424
:10499000E80810926B0510926A0520E830E0309329
:1049A0006D0520936C0580EA90E090936F058093ED
:1049B0006E05309371052093700590937305809375
:1049C000720510927D051092750510927405109273
:1049D00077051092760561E060937C058FEF9FEF7D
:1049E00090937B0580937A05909379058093780561
:1049F00060937E0510927F051092810510928005CC
:104A000081E891E09093690580936805C0938405DF
:104A100087E0809385058AE080938605609383050F
:104A20008FEF809388058093870510924C05109234
:104A30004B05C0924D05D0924E05E0924F05F09285
:104A400050058FE691E090934A05809349051092B6
:104A5000600510925F051092620510926105109238
:104A600064051092630510926605109265058091A9
:104A700067058E7F8D7F8093670586958170682797
:104A800083E00E94E80861E083E00E941609E4E206
:104A9000FEE0E491E0935905E0E1FEE0E491F0E00E
:104AA000EE0FFF1FED5FF14F8591949190935B05A1
:104AB00080935A0560E085E00E94160980916705A1
:104AC00081FD04C061E085E00E94E80885E08093F4
:104AD0005505E6E2FEE0E491E0935605E2E1FEE0F2
:104AE000E491F0E0EE0FFF1FE750F24F85919491B3
:104AF00090935805809357051092300510922F051A
:104B000083E691E090932E0580932D0589E495E04E
:104B1000909332058093310580E994E090933405B9
:104B20008093330586E080934505109247051092E7
:104B300046051092480588EE93E0A0E0B0E080932F
:104B4000350590933605A0933705B093380588E86E
:104B500093E1A0E0B0E08093390590933A05A093EB
:104B60003B05B0933C0588E99AE3A0E0B0E0809370
:104B70003D0590933E05A0933F05B0934005CF912E
:104B8000FF90EF90DF90CF900895CF93DF93CDB754
:104B9000DEB729970FB6F894DEBF0FBECDBF78946D
:104BA00084B5826084BD84B5816084BD85B5826032
:104BB00085BD85B5816085BD80916E0081608093E3
:104BC0006E0010928100809181008260809381004C
:104BD000809181008160809381008091800081605C
:104BE000809380008091B10084608093B1008091B7
:104BF000B00081608093B00080917A0084608093DF
:104C00007A0080917A00826080937A0080917A00A5
:104C1000816080937A0080917A00806880937A0026
:104C20001092C10014BE61E08CE00E94160961E0A0
:104C300084E00E94160960E082E00E94160961E0AB
:104C40008AE00E94160961E089E00E94160961E08D
:104C500087E00E94160960E084E00E94E80861E0B5
:104C60008CE00E94E808E091A004F091A10482E0A9
:104C70008083E0919C04F0919D041082E0919E0459
:104C8000F0919F0480E180831092A804E091A40435
:104C9000F091A50486E08083E091A204F091A30442
:104CA000808180618083E091A204F091A3048081DF
:104CB00088608083E091A204F091A30480818068E1
:104CC0008083E091A204F091A30480818F7D808392
:104CD0006FE97AE080E994E00E94650762E070E0A5
:104CE00080E994E00E94E9156DE97AE080E994E0BA
:104CF0000E94650766E070E080E994E00E940A1770
:104D000060E87AE080E994E00E943E1762E77AE08A
:104D100080E994E00E943E1790E080E00E94CA354E
:104D200090910C01981709F4F8C26DE57AE080E9DA
:104D300094E00E943E170E94311F0E94101F90E0D5
:104D400080E00E94CA3590910C0198130FC010E0CA
:104D500000E0C8010E94CA35682F80E994E00E94F3
:104D600029080F5F1F4F0034110599F780E994E07F
:104D70000E94061780E00E94481F10928A05109238
:104D8000890510928B0510928C0561E08091850554
:104D90000E94160961E0809184050E9416098091A5
:104DA0008405082E000C990BFC01E35FF14FE491A0
:104DB000F0E0EE0FFF1FED5FF14F2591349130933E
:104DC00092052093910520918505022E000C330B4E
:104DD000F901E35FF14FE491F0E0EE0FFF1FED5FAB
:104DE000F14F459154915093940540939305FC01E4
:104DF000EF5DF14FE491E0939705F901EF5DF14F1D
:104E0000E491E093980580918305882309F48CC28E
:104E10001FB7F8948091F602811127C0E7E1FEE008
:104E20008491EBE2FEE09491E82FF0E0EE0FFF1F9B
:104E3000EF5CF64FA591B491EC91E92321F461E088
:104E40008AE00E94E80861E08AE00E9416098CB5B9
:104E500080618CBD8CB580648CBD61E08DE00E946A
:104E6000160961E08BE00E9416098091F6028F5FBF
:104E70008093F6021FBF80E580938E0481E08093CB
:104E80008F0488E695E00E94720B809186058F3F23
:104E900021F161E00E94160961E0809186050E947F
:104EA000E80864EF71E080E090E00E946C0960E047
:104EB000809186050E94E80864EF71E080E090E050
:104EC0000E946C0961E0809186050E94E80864EF09
:104ED00071E080E090E00E946C0983E799E00E9415
:104EE0001D0C80E890E09093730580937205909379
:104EF00071058093700586E699E00E941D0C82E0A2
:104F00008093890583E080938A058BE399E00E9472
:104F10001D0C81E08093820560E088E695E00E94A8
:104F2000700C70E060E088E695E00E94890B63E019
:104F300088E695E00E94700C68EC70E080E090E0FC
:104F40000E946C090E94B91668EE73E080E090E060
:104F50000E946C091092640510926305109262051C
:104F6000109261051092600510925F058DE991E045
:104F7000909366058093650590915505963108F0EC
:104F800047C02DEB30E03093600520935F052BE99F
:104F900031E030936205209361052CE231E03093DB
:104FA0006405209363052091680084E0983048F000
:104FB00031E09E3008F430E081E001C0880F3A957E
:104FC000EAF7822B809368002DE630E0983050F0AD
:104FD0002BE630E09E3030F02CE630E0963110F0D9
:104FE00030E020E030935D0520935C05292F30E010
:104FF000983008F0E2C181E001C0880F9A95EAF785
:1050000080935E0580916505909166050197F1F7A3
:105010008091630590916405892B49F1E091F90233
:10502000F091FA0235E0E934F30709F1309739F0ED
:10503000A389B4899C918589809589238C938091DB
:1050400067058E7F809367051092F8021092F70231
:1050500089E495E09093FA028093F902E0915C056F
:10506000F0915D05808190915E05892B808365E4D8
:105070007AE080E994E00E943E1768E873E180E0FE
:1050800090E00E946C0980E994E00E94E707892B78
:1050900041F165E37AE080E994E00E943E17E0E0A8
:1050A000F1E0DF010D900020E9F7CD018150914042
:1050B0007C01FA83E9839C838B8310E000E0892BD9
:1050C00009F08BC164E27AE080E994E00E943E1727
:1050D00081E00E94481F60ED77E080E090E00E9450
:1050E0006C09449A459A8091B9008E7F8093B900EB
:1050F0008091B9008D7F8093B90088E48093B800D7
:1051000084E48093BC00449A459A8CE08093B80074
:1051100062E070E080E090E00E946C0946E96CE398
:1051200080919B050E94320A62E070E080E090E08E
:105130000E946C0900914301F090420110914501D9
:105140000E94000BB1E0FB1296C14CE16EE380E0DF
:105150000E94EB0A81E392E00E941C17011193C1A7
:1051600040E260E283E00E94EB0A40E060EE88E00B
:105170000E94EB0A64EF71E080E090E00E946C090D
:10518000812F0E94C21886E892E00E941C1740916D
:105190004601483008F081C1E0E14E9FA001112492
:1051A00060E781E00E94EB0A409147014F706FE099
:1051B00082E00E94EB0A6AE070E080E090E00E94EA
:1051C0006C09F89414BE809160008861809360003F
:1051D00081E68093600010928000109281008EEE34
:1051E00095E890938500809384008091810084608D
:1051F0008093810080916F00816080936F0078942C
:105200000E94E0181092D3036AE070E080E090E022
:105210000E946C090E94B91668EE73E080E090E08D
:105220000E946C0964E17AE080E994E00E946507DD
:1052300003E313E071E0272E73E0372ED1011C92B7
:1052400011961C92119712961C92129713961C920B
:10525000139714961C9262E17AE080E994E00E9430
:105260006507B5E02B0E311C0215130539F780E9EF
:1052700094E00E94061760E07AE080E994E00E94E2
:105280003E170E94A60B62E370E080E090E00E946F
:105290006C0980E994E00E9406171F82D12CC12C72
:1052A000F12CE12C67EE862E63E0962EC98640E055
:1052B00060EC83E00E94EB0A40E860EE88E00E9428
:1052C000EB0A8F810E94C21869E170E080E090E0F3
:1052D0000E946C09809199050E94BF085C010E94A0
:1052E0009F092B013C01E4E64E0E511C611C711C10
:1052F00010E000E00E949F0964197509860997096A
:1053000097FFCDC0809199050E94BF08A816B906E5
:1053100014F40F5F1F4F5C01EDCF0E944707843FDD
:1053200091400CF402CD09CD61E0809188050E9486
:10533000160961E0809187050E94160960E080915E
:1053400088050E94E80860E0809187050E94E808CF
:1053500080918805082E000C990BFC01E35FF14F4A
:10536000E491F0E0EE0FFF1FED5FF14F25913491D6
:105370003093900520938F0520918705022E000C15
:10538000330BF901E35FF14FE491F0E0EE0FFF1F03
:10539000ED5FF14F4591549150938E0540938D05EB
:1053A000FC01EF5DF14FE491E0939605F901EF5DAB
:1053B000F14FE491E093950564CD9E3040F4285080
:1053C000310981E001C0880F2A95EAF719CE2E50E5
:1053D0003109F7CF30E020E0890180E994E00E94B4
:1053E000390B97FD7ECEF801E050FF4F2081022E51
:1053F000000C330B82179307B1F14F010115110512
:1054000049F3980121503109D4014E914D01042EE8
:10541000000C550B8417950741F021153105E1F279
:105420008901EFCF21E030E0D7CF21153105D1F34D
:10543000A0E0CA2EA1E0DA2EBF01621B730B50E080
:1054400040E0D601AD906D01DB01BD90BD01AB1018
:1054500005C04F5F5F4F4217530798F3421753073A
:10546000F9F69801B9CF98012F5F3F4F2E153F05F0
:1054700009F0B2CF27CE44E26EE380E00E94EB0A4F
:105480008EE492E069CE40E060E283E00E94EB0AA5
:105490008AE692E00E941C1768CE40E281CE62E06C
:1054A00070E080E090E00E946C0940E060EE88E0EF
:1054B0000E94EB0A0E94000BB02E11270815190557
:1054C00014F47601480165EE79E080E994E00E94E9
:1054D0006507698580E994E00E94FF1661ED79E037
:1054E00080E994E00E946507B80180E994E00E9499
:1054F000E91561EA72E080E994E00E94C0182B2D62
:1055000030E0A0EAB0E00E94E035AB01BC012AE047
:1055100080E994E00E949D1585EA92E00E941C17A4
:1055200064E170E080E090E00E946C09FFEFCF1A28
:10553000DF0A2F81285F2F8330E1C316D10409F0E1
:10554000B5CE63EC79E080E994E00E946507B7018D
:1055500080E994E00E94E91568EB79E080E994E045
:105560000E94650743E0EE0CFF1C4A95E1F7B70186
:1055700080E994E00E940A17109275051092740554
:1055800010927705109276056EEA79E088E695E04C
:105590000E946507B70188E695E00E94E9150E9420
:1055A0006D1B0E9447079093C9038093C8030E9414
:1055B000A60B0E94761984EA93E0809590959887CF
:1055C0008F8355E0452E512CDD24D3948091D40354
:1055D00081111CC065EE7AE08DE295E00E946507BE
:1055E0002AE040E050E0BA018DE295E00E949D156E
:1055F0008DE295E00E9406176EED7AE0809133050A
:10560000909134050E943E17D092D403A8E5B7E0EC
:10561000B0930401A093030180916900836080939B
:105620006900E89A0E94210B1092D30383E08093D3
:10563000D2038091D303811132C00E944707853F76
:1056400091406CF19091E8038091D103981327C0A9
:105650008091D003811123C08090CC039090CD0322
:10566000A090CE03B090CF0381149104A104B104A3
:1056700001F30E949F09681979098A099B09613120
:10568000774281059105A8F2D092D0031092CC0305
:105690001092CD031092CE031092CF03CACFA895DB
:1056A0001092CB031092CA031092D00360E08CE0FA
:1056B0000E94E8088091D30318160CF40EC165E02F
:1056C00070E080E090E00E946C09E8982DE537E0FA
:1056D00030930401209303010E9447079093C9036C
:1056E0008093C8039091E8038091D103891709F44E
:1056F00085C080910B018F5F80930B019093D10344
:105700001092D2038091C703811178C08EE693E096
:10571000FC0122912183A3E3B3E0AE17BF0709F098
:10572000E0C0109233039C01255C3F4F80E09191D3
:10573000891708F4892F2E173F07C9F780936F0345
:105740006EE10E94EF35882309F4CDC080930701F4
:105750001092FC028091E9039091C603891721F110
:105760008093C60387E893E0FC012291218320E720
:1057700033E02E173F0709F0B9C0109270039C0167
:10578000295E3F4F80E09191891708F4892F2E17E9
:105790003F07C9F78093A2036EE10E94EF3588238B
:1057A00009F4A6C08093080180914C0190910A01F0
:1057B000891721F180930A0181EC93E0FC01229189
:1057C0002183A4EAB3E0AE17BF0709F094C010929A
:1057D000A4039C01235E3F4F80E09191891708F458
:1057E000892F2E173F07C9F78093C2036EE10E94ED
:1057F000EF35882309F481C0809309018091C503A6
:10580000882329F01092C5038CE380930B018091CB
:105810000B018C3391F41092C40310920B010E947F
:105820006D1B8091C303882341F0D092C4030E9472
:105830007A1E60E080E00E94A81E0091C8031091CB
:10584000C903043FB1E01B070CF003C1D092D2039F
:1058500061E08CE00E94E80868EC70E080E090E095
:105860000E946C090039E1E01E070CF449C0109257
:10587000FB026EEF7AE080E994E00E946507809178
:105880004A010E942D176EEE7AE080E994E00E94B2
:1058900065078091FB020E942D172091FB0230E0EA
:1058A000F89480914A018230F1F59091A1039923F7
:1058B000D1F1D092C7032430310511F00C949E35FC
:1058C0009091A103911138C08F5F883008F07FC09C
:1058D00080934A011092A1035DC082E08093D203BD
:1058E000EECECF0115CFD092070132CFCF013CCF02
:1058F000D092080159CFCF0161CFD09209017ECF5C
:105900000C32F1E01F071CF0D092FB02B2CF82E014
:10591000083C11052CF483E0023311050CF484E0FB
:105920008093FB02A6CF1092C7032430310509F003
:1059300051C0823049F6C4CF913069F480914C0156
:105940008F5F80934C018091E703943059F48F5F0F
:105950008093E70307C0923091F58091E9038F5F50
:105960008093E90380914C01883010F0D0924C0173
:105970008091E903883110F01092E9038091E803E7
:105980008C3310F01092E8038091E7038C3310F011
:105990001092E7032330310509F0BCC08091A103C8
:1059A00081508093A10390914A01913009F0A6C0E3
:1059B000833008F44DC082E08093A10349C0933046
:1059C00011F68091E8038F5F8093E803CBCF1092AC
:1059D0004A0180CF22303105E9F6823009F084C0D7
:1059E0009091A103992309F47FC0913069F48091CB
:1059F0004C01815080934C018091E703943061F415
:105A000081508093E70308C0923009F064C0809110
:105A1000E90381508093E90380914C01883018F0AC
:105A200087E080934C018091E903883118F087E189
:105A30008093E9038091E8038C3318F08BE3809323
:105A4000E8038091E7038C3318F08BE38093E7033E
:105A5000789465E77DE080E994E00E9465076091B5
:105A6000D20380E994E00E94FF1667E67DE080E9BA
:105A700094E00E9465074091CC035091CD03609162
:105A8000CE037091CF032AE080E994E00E949D1537
:105A900080E994E00E9406178091D203833010F0D1
:105AA0000C945E35823009F0FCC161E08CE00E940C
:105AB000E808E0914C01E150E73008F048C0F0E020
:105AC000EC59F24D0C943136A12D272E2A2E2D2E75
:105AD000302E332E362E933009F08ECF8091E8038E
