:100000000C9432070C94C9150C94A2150C94321F51
:100010000C94321F0C94321F0C94E20B0C945A0770
:100020000C945A070C945A070C945A070C945A07CC
:100030000C945A070C94820B0C945A070C945A0790
:100040000C942A230C945A070C94E7160C94C116AE
:100050000C945A070C945A070C945A070C945A079C
:100060000C945A070C945A071F2B222B252B282B54
:100070002B2B2E2B312B282E2B2E2E2E312E342EA9
:10008000372E3A2E4F2F522F552F582F5B2F5E2F82
:10009000612F04E010021C07123732292D29252B6D
:1000A0003900010310E110031D07062E2C292D2E07
:1000B0002E373F0000021013800A298064022A04B0
:1000C0000000007F2B040000007F0F01809611804C
:1000D000FFB103012C2DB203012C2DB306012C2DF1
:1000E000012C2DB40107C003A20284C101C5C202C4
:1000F0000A00C3028A2AC4028AEEC5010E20003615
:1001000001C83A010542657374206361702E0020B6
:1001100043617061636974793A0042657374207356
:10012000657474696E673A000920676976657320A3
:100130006672657175656E63793A200074756E65D7
:1001400020616E74656E6E6120746F2063617061F2
:100150006369746F722000417272617920636C650B
:10016000617265642E2E2E2E002E00436C65617226
:100170002061727261792E2E2E2E00536574757077
:1001800020656E74657265642E2E2E00436865636B
:100190006B20666F7220736574757000547970659A
:1001A00020475320746F20656E74657220736574E8
:1001B00075703A0057726974696E6720646566618C
:1001C000756C74732E2E2E2E00537461727420641D
:1001D0006973706C617900626567696E6E696E67DC
:1001E00020626F6F742070726F6365647572652E24
:1001F0002E2E2E002E00506C6179696E6720576993
:10020000746820467573696F6E3A204153333933F1
:1002100035204C696768746E696E672053656E732C
:100220006F722C2053454E2D33393030312D5230E2
:10023000312020760041736C6565700041542B4776
:10024000534C503D00427574746F6E20707265732C
:100250007365643A00446973706C61793A00536164
:1002600074757264617900467269646179005468DA
:10027000757273646179005765646E657364617942
:100280000054756573646179004D6F6E6461790027
:1002900053756E6461790020746F6F2068696768B8
:1002A000004E6F697365206C6576656C004E6F69F2
:1002B0007365206C6576656C20746F6F2068696764
:1002C0006800202064657465637465640044697324
:1002D00074757262657200446973747572626572D6
:1002E00020646574656374656400204B4D00204490
:1002F0006973743A003A003A002000204B4D002008
:1003000020446973742E20004C696768746E696EAE
:100310006700206B696C6F6D6574657273004C6962
:100320006768746E696E672064657465637465647C
:10033000212044697374616E636520746F20737447
:1003400072696B653A2000206E6F74206578706565
:10035000637465640020736F7572636520726573E2
:10036000756C7400696E7465727275707400696E74
:100370007465727275707420736F75726365207224
:100380006573756C74206E6F742065787065637426
:100390006564002F0050756C7365733A0044617991
:1003A0002020203A00486F757220203A004D696E77
:1003B0007574653A0053746174733A002A2A2A00EE
:1003C0005361740046726900546875005765640093
:1003D000547565004D6F6E0053756E004B4D0020D7
:1003E00000486973746F72793A0044617920202063
:1003F0003A00486F757220203A004D696E75746539
:100400003A00202A00536174757264617900467263
:100410006964617900546875727364617900576525
:10042000646E657364617900547565736461790005
:100430004D6F6E6461790053756E646179002020A0
:1004400020202020202A00202020202A00202A00EE
:10045000363000343500333000343500333000316D
:1004600035003330003135004D3A004D61782F6D45
:10047000696E3A004D696E757465730034380033E7
:100480003600323400333600323400313200323438
:1004900000313200483A004D61782F686F75723A2A
:1004A00000486F75727300333000313500443A00F4
:1004B0004D61782F6461793A00446179730020209E
:1004C000427574746F6E74696D653A00457363614B
:1004D0007065642066726F6D206C6F6F703A002ECD
:1004E00000204465746563746F7220760020204C90
:1004F000696768746E696E67002020205049345225
:10050000415A0044697361626C656400456E6162C2
:100510006C656400446973743A00496E646F6F726D
:1005200073004F7574646F6F72004D6F64653A00AD
:1005300043616C6C3A004E6F20636F6E6E6563743E
:10054000696F6E002A0020204842433D00496E66D4
:100550006F3A00293A00436F6E7472617374280019
:10056000293A0053637265656E2031202830202DB2
:10057000203329202800293A0054696D6520636FD3
:100580007272656374696F6E202800293A00537097
:10059000696B652072656A656374696F6E206C654E
:1005A00076656C202830202D20313529202800291F
:1005B0003A004E6F6973656C6576656C2028312052
:1005C0002D203829202800293A0043617061636991
:1005D0007479202800293A002342656570657220ED
:1005E0002800293A2000456E61626C656400446908
:1005F0007361626C656400446973747572626572DC
:100600002028302F3129202800293A20004F7574E6
:10061000646F6F727300496E646F6F727300496E1E
:10062000646F6F72733D30206F72204F7574646F0A
:100630006F72733D31202800293A0043616C6C20B1
:100640002800293A0050617373776F726420280084
:10065000293A005353494420280057617463686461
:100660006F6720726563656976656420286D6178BF
:10067000203130292000726561647900486172641C
:100680002072657365742C20617474656D707420BC
:1006900000415445300041540041542B5253540002
:1006A0003C2D2D2D200041542B4349504D55583D94
:1006B0003000222C220041542B43574A41503D2206
:1006C0000041542B43574D4F44453D310041542B7D
:1006D00043494653520041542B43495053455256C7
:1006E00045523D300041542B4349504D55583D3003
:1006F0000041542B4349465352004661696C65647E
:100700003A206861726477617265207265736574FE
:10071000004661696C65643A20736F667477617234
:1007200065207265736574004661696C65643A2082
:10073000636F6E6E656374696E67004661696C65B0
:10074000643A204E6F204950206E756D62657200CC
:1007500053657420746F2073696E676C6520636FD6
:100760006E6E656374206D6F6465005365727665A7
:10077000726D6F646520616C726561647920736568
:1007800074005365727665726D6F6465207365746D
:10079000004F4B0A436865636B696E6720495020C0
:1007A000616464722E2E2E00436F6E6E65637469F1
:1007B0006E6720746F20576946692E2E2E00536590
:1007C000742054696D654F7574732E2E2E00536F0F
:1007D00066742072657365742E2E2E0048617264F3
:1007E0002072657365742E2E2E0020485454502FAD
:1007F000312E310D0A486F73743A206F6E7765653C
:10080000722E70693472617A2E6E6C0026446973A0
:1008100074616E63653D0026496E74547970653D60
:1008200000474554202F4164644576656E742E70F0
:1008300068703F43616C6C7369676E3D006F6E77E3
:100840006565722E70693472617A2E6E6C00474550
:1008500054202F74696D652E706870204854545070
:100860002F312E310D0A486F73743A206F6E776501
:1008700065722E70693472617A2E6E6C006F6E77BD
:100880006565722E70693472617A2E6E6C00415407
:100890002B43495053454E443D003C2D2D2D200007
:1008A0004F4B0D0A00476F742049503A0044617461
:1008B000652654696D6520666F756E64002B2B2B61
:1008C0002B2B2B002D2D2D2D2D2D00000000002574
:1008D0000028002B0000000000230026002900044F
:1008E00004040404040404020202020202030303D7
:1008F00003030301020408102040800102040810D1
:10090000200102040810202D2D2D3E2000000000A3
:1009100000003E5B4F5B3E3E6B4F6B3E1C3E7C3EA1
:100920001C183C7E3C181C577D571C1C5E7F5E1CAF
:1009300000183C1800FFE7C3E7FF0018241800FF69
:10094000E7DBE7FF30483A060E2629792926407F63
:10095000050507407F05253F5A3CE73C5A7F3E1C72
:100960001C08081C1C3E7F14227F22145F5F005F5E
:100970005F06097F017F006689956A60606060603C
:1009800094A2FFA29408047E040810207E20100880
:10099000082A1C08081C2A08081E101010100C1E1B
:1009A0000C1E0C30383E3830060E3E0E060000009D
:1009B000000000005F00000007000700147F147FA4
:1009C00014242A7F2A1223130864623649562050C1
:1009D0000008070300001C2241000041221C002ADD
:1009E0001C7F1C2A08083E08080080703000080898
:1009F000080808000060600020100804023E514909
:100A0000453E00427F400072494949462141494DD7
:100A1000331814127F1027454545393C4A4949315E
:100A200041211109073649494936464949291E00DD
:100A30000014000000403400000008142241141487
:100A4000141414004122140802015909063E415DA4
:100A5000594E7C1211127C7F494949363E41414131
:100A6000227F4141413E7F494949417F09090901AE
:100A70003E414151737F0808087F00417F410020BB
:100A800040413F017F081422417F404040407F02A7
:100A90001C027F7F0408107F3E4141413E7F0909CF
:100AA00009063E4151215E7F0919294626494949D7
:100AB0003203017F01033F4040403F1F2040201F81
:100AC0003F4038403F631408146303047804036113
:100AD00059494D43007F4141410204081020004123
:100AE00041417F04020102044040404040000307AE
:100AF000080020545478407F284444383844444403
:100B000028384444287F385454541800087E090279
:100B100018A4A49C787F0804047800447D40002039
:100B200040403D007F1028440000417F40007C048D
:100B30007804787C080404783844444438FC182449
:100B4000241818242418FC7C08040408485454541D
:100B50002404043F44243C4040207C1C2040201CB2
:100B60003C4030403C44281028444C9090907C44B9
:100B700064544C44000836410000007700000041F6
:100B800036080002010204023C2623263C1EA1A1D5
:100B900061123A4040207A385454555921555579BC
:100BA000412254547842215554784020545579407C
:100BB0000C1E5272123955555559395454545939DD
:100BC000555454580000457C410002457D420001C7
:100BD000457C407D1211127DF0282528F07C54556B
:100BE00045002054547C547C0A097F4932494949C4
:100BF000323A4444443A324A4848303A4141217AF0
:100C00003A42402078009DA0A07D3D4242423D3DB9
:100C10004040403D3C24FF2424487E4943662B2F1E
:100C2000FC2F2BFF0929F620C0887E09032054548D
:100C300079410000447D413048484A3238404022E2
:100C40007A007A0A0A727D0D19317D2629292F280A
:100C5000262929292630484D402038080808080848
:100C6000080808382F10C8ACBA2F102834FA000032
:100C70007B000008142A142222142A140855005557
:100C80000055AA55AA55AAFF55FF55FF000000FFC1
:100C900000101010FF00141414FF001010FF00FFCC
:100CA0001010F010F0141414FC001414F700FF00DE
:100CB00000FF00FF1414F404FC141417101F10108C
:100CC0001F101F1414141F00101010F0000000005B
:100CD0001F101010101F10101010F010000000FF57
:100CE000101010101010101010FF10000000FF1452
:100CF0000000FF00FF00001F10170000FC04F414A8
:100D0000141710171414F404F40000FF00F714145F
:100D10001414141414F700F7141414171410101FDB
:100D2000101F141414F4141010F010F000001F1011
:100D30001F0000001F14000000FC140000F010F061
:100D40001010FF10FF141414FF141010101F0000D7
:100D50000000F010FFFFFFFFFFF0F0F0F0F0FFFFEA
:100D6000FF0000000000FFFF0F0F0F0F0F3844447B
:100D70003844FC4A4A4A347E02020606027E027E5B
:100D80000263554941633844443C04407E201E20A0
:100D900006027E020299A5E7A5991C2A492A1C4C45
:100DA0007201724C304A4D4D303048784830BC6248
:100DB0005A463D3E494949007E0101017E2A2A2AC0
:100DC0002A2A44445F444440514A444040444A51E2
:100DD000400000FF0103E080FF000008086B6B0883
:100DE0003612362436060F090F06000018180000C8
:100DF000001010003040FF0101001F01011E00190A
:100E00001D1712003C3C3C3C0000000000000000AC
:100E100000240027002A0000000008000201000052
:100E20000304070000000000000000456E657267C3
:100E3000793A00222C0041542B43495053544152DB
:100E4000543D22544350222C2200556E6C696E6B27
:100E50000D0A0041542B434950434C4F5345000069
:100E60002733883411241FBECFEFD8E0DEBFCDBFBB
:100E700025E0ACEAB2E001C01D92AD39B207E1F75E
:100E800012E0A0E0B1E0EEEFFAE602C005900D92AC
:100E9000AC3AB107D9F717E0C1E3D7E004C0219716
:100EA000FE010E942535C033D107C9F70E94742383
:100EB0000C9472350C94000081E08093B402089584
:100EC000CF93DF93CAE0D0E085E494E00E94A513BD
:100ED000181619062CF485E494E00E948313F4CFCD
:100EE000219791F7DF91CF910895FF920F931F9370
:100EF000CF93DF930E9460071092A10300E010E0FF
:100F0000F12CD0E0C0E0DD3069F185E494E00E948E
:100F1000A51318161906BCF785E494E00E94831304
:100F2000D82F80ED8D0F8A3098F4F801EF55FC4FE3
:100F3000D0830F5F1F4F6D2F85E494E00E94DC1378
:100F4000CC0F8C2F880F880FC80FC053CD0FDBCF6D
:100F5000DD32C9F66DE285E494E00E94DC13FF24E3
:100F6000F394D3CFF801EF55FC4F1082F110C195E7
:100F70000E9460078C2FDF91CF911F910F91FF90FE
:100F80000895EF92FF920F931F93CF93DF937C010D
:100F90000E9460071092A103C0E0D0E08E010F55BF
:100FA0001C4FF80180818D3051F4F8011082DF91DF
:100FB000CF911F910F91FF90EF900C946007CE1589
:100FC000DF059CF785E494E00E94A5131816190626
:100FD00044F785E494E00E948313682FF80180832E
:100FE0008D3011F08A3011F4219704C085E494E02B
:100FF0000E94DC132196D2CF4F925F926F927F9224
:101000008F929F92AF92BF92CF92DF92EF92FF9218
:101010000F931F93CF93DF93CDB7DEB7DA950FB65B
:10102000F894DEBF0FBECDBF1092B0021092B50291
:101030006CED77E085E494E00E94AD168091FA04AF
:1010400087FD94C0C090EA04D090EB04E090EC04DB
:10105000F090ED048091EE049091EF04A091F004E3
:10106000B091F1040097A105B10541F08093EA0425
:101070009093EB04A093EC04B093ED0488E893E123
:10108000A0E0B0E08093EE049093EF04A093F0040E
:10109000B093F10488E99AE3A0E0B0E08093F20411
:1010A0009093F304A093F404B093F50400E010E0EF
:1010B0006CE776E08091E8049091E9040E9427169D
:1010C0000F5F1F4FB8018091E8049091E9040E94DE
:1010D000DD0F60E08091FA040E94112261E08091AE
:1010E000FA040E94412264E670E080E090E00E94F1
:1010F0007D2260E08091FA040E94412262E370E068
:1011000080E090E00E947D2286E796E00E949212A5
:101110000530110519F0882359F227C2C114D104F2
:10112000E104F10441F0C092EA04D092EB04E092B1
:10113000EC04F092ED0448E853E160E070E0409385
:10114000EE045093EF046093F0047093F10448E9C7
:101150005AE360E070E04093F2045093F30460932C
:10116000F4047093F504882309F4CBC16EEC77E0A6
:1011700085E494E00E94AD16C090EA04D090EB04A0
:10118000E090EC04F090ED048091EE049091EF0477
:10119000A091F004B091F1040097A105B10541F0D0
:1011A0008093EA049093EB04A093EC04B093ED04D5
:1011B00038E8832E33E1932EA12CB12C8092EE04DB
:1011C0009092EF04A092F004B092F10448E9442E0A
:1011D0004AE3542E612C712C4092F2045092F30495
:1011E0006092F4047092F50469E976E082EE94E08E
:1011F0000E94AD1680E090E00E9492128823D1F008
:1012000066E976E082EE94E00E94AD1680E090E020
:101210000E94921261E976E082EE94E00E94AD169F
:1012200080E090E00E949212C114D104E104F10424
:1012300081F007C0C114D104E104F10409F44EC1E6
:1012400080E0C092EA04D092EB04E092EC04F092C9
:10125000ED0498E8892E93E1992EA12CB12C80926F
:10126000EE049092EF04A092F004B092F10428E909
:10127000C22E2AE3D22EE12CF12CC092F204D0929D
:10128000F304E092F404F092F504882309F436C1E3
:101290006EEB77E085E494E00E94AD1688EE93E073
:1012A000A0E0B0E08093EA049093EB04A093EC04F8
:1012B000B093ED048092EE049092EF04A092F004BB
:1012C000B092F104C092F204D092F304E092F404DC
:1012D000F092F50468EA77E085E494E00E94AD16A8
:1012E0008091E8049091E904009751F02091FD0469
:1012F000222331F060EA76E00E9427161092FD0466
:10130000A090E604B090E704CE0101967C0100E0D5
:1013100010E06C01C5010E94F01597FD0BC08D30E7
:10132000910541F0D7018D937D010F5F1F4F0F3F56
:10133000110581F7F601E00FF11F10828091E6049C
:101340009091E704DC01ED91FC910284F385E02D9E
:1013500009950A9799F761EC76E082EE94E00E9495
:10136000AD1680E090E00E949212882309F4B3C089
:1013700066EB76E082EE94E00E9427166DE071E065
:1013800082EE94E00E94BF1662EB76E082EE94E07B
:101390000E9427166DE171E082EE94E00E94BF1674
:1013A00062E282EE94E00E94201682EE94E00E94B7
:1013B000A916C090EA04D090EB04E090EC04F09001
:1013C000ED048091F2049091F304A091F404B091A3
:1013D000F5040097A105B10541F08093EA049093CC
:1013E000EB04A093EC04B093ED0488E893E1A0E053
:1013F000B0E08093EE049093EF04A093F004B093D8
:10140000F10488E99AE3A0E0B0E08093F2049093BD
:10141000F304A093F404B093F50480E090E00E94FC
:101420009212C114D104E104F10441F0C092EA0423
:10143000D092EB04E092EC04F092ED0448E853E122
:1014400060E070E04093EE045093EF046093F0048A
:101450007093F10448E95AE360E070E04093F204CD
:101460005093F3046093F4047093F504882399F186
:1014700066EA76E082EE94E00E94AD1680E090E0AD
:101480000E949212882339F161E977E085E494E0C3
:101490000E94AD166DEC76E082EE94E00E94AD16EF
:1014A00080E090E00E949212882391F081E0809386
:1014B000B00266ED76E082EE94E00E94AD1680E028
:1014C00090E00E9492128823D9F162E877E03AC056
:1014D0006BE377E018C068E277E015C08092EE0415
:1014E0009092EF04A092F004B092F1044092F204C2
:1014F0005092F3046092F4047092F50461E177E095
:1015000002C06AEF76E085E494E00E94AD16809117
:10151000B002882309F448C061EF76E08EEF94E0D2
:101520000E94AD160E94201103E010E08091A003FC
:10153000811102C00E94EB0A01501109B9F734C0B1
:101540006BE677E085E494E00E94AD1665EE76E008
:1015500082EE94E00E94AD1680E090E00E9492122C
:101560008823A9F260E577E0CECFC114D104E1046D
:10157000F10409F0D8CD88E893E1A0E0B0E08093D1
:10158000EE049093EF04A093F004B093F10488E983
:101590009AE3A0E0B0E08093F2049093F304A09368
:1015A000F404B093F504E2CDD3950FB6F894DEBF02
:1015B0000FBECDBFDF91CF911F910F91FF90EF90A4
:1015C000DF90CF90BF90AF909F908F907F906F9063
:1015D0005F904F9008958091B50281110E94FC07A1
:1015E0008091B002882321F18DE798E00E94B62017
:1015F0008823E1F00E94201184E390E00E942D13E3
:101600008823A1F06EE478E08EEF94E00E94AD169E
:101610008EEF94E00E94A9168EEF94E00E94A91626
:101620000E9420110E9420110E9420110C94AC20D5
:1016300008950F931F93CF93DF93082F162F809158
:10164000B50281110E94FC078091B002882309F441
:1016500054C08DE398E00E94B620882309F447C067
:101660001A3018F0C0E6D0E002C0CFE5D0E0BE01ED
:1016700085E494E00E94DD0FCE010E942D138823A3
:10168000B1F161E278E08EEF94E00E94271668E302
:1016900071E08EEF94E00E94BF1667E178E08EEF74
:1016A00094E00E942716602F8EEF94E00E940410B1
:1016B0006CE078E08EEF94E00E942716612F8EEFA9
:1016C00094E00E9404106AEE77E08EEF94E00E94AE
:1016D000AD168EEF94E00E94A9168EEF94E00E9462
:1016E000A9160E9420110E9420110E942011DF9152
:1016F000CF911F910F910C94AC20DF91CF911F914E
:101700000F9108951F920F920FB60F9211242F93ED
:101710003F934F935F936F937F938F939F93AF9379
:10172000BF93EF93FF938EEE95E89093850080939F
:10173000840080918B038F5F8A3718F480938B032A
:1017400002C010928B0380918B03869580939E0339
:101750008C3339F510928B0310929E0380919F0376
:101760008F5F80939F0361E272E085E494E00E94C2
:10177000BF1680919F038C33A1F410929F03809138
:10178000A0038F5F883119F08093A0030AC01092E4
:10179000A00380914C018F5F883009F481E0809331
:1017A0004C01FF91EF91BF91AF919F918F917F91EC
:1017B0006F915F914F913F912F910F900FBE0F90BE
:1017C0001F9018951F920F920FB60F9211242F930E
:1017D0003F934F935F936F937F938F939F93AF93B9
:1017E000BF93EF93FF93A8958091B2029091B302BB
:1017F00001969093B3028093B2026AE576E085E4A5
:1018000094E00E9427166091B2027091B30285E4C1
:1018100094E00E94DD0F8091B2029091B3020A978A
:1018200019F4E0E0F0E00995FF91EF91BF91AF91DD
:101830009F918F917F916F915F914F913F912F91E8
:101840000F900FBE0F901F9018950F931F93CF937B
:10185000DF9380E090E00E94C21F90910C018913F9
:101860000EC00CE011E0C0E0D0E0CE010E94C21F2B
:10187000F80181938F012196C034D105B1F7DF9132
:10188000CF911F910F9108950F931F93CF93DF93E3
:101890000CE011E0C0E0D0E0F80161918F01CE01D1
:1018A0000E94C6342196C034D105B1F7DF91CF91A3
:1018B0001F910F910895CF93C82F63E576E085E4DB
:1018C00094E00E9427166DE071E085E494E00E94A8
:1018D000BF1660E576E085E494E00E942716CC23ED
:1018E00081F08FE090E00E94C1078091A1038823DE
:1018F00041F010920D0161EA73E08DE091E00E94E9
:101900004D3585E494E00E94A91665E476E085E40F
:1019100094E00E9427166DE171E085E494E00E9456
:10192000BF1662E476E085E494E00E942716CC239B
:1019300081F08AE190E00E94C1078091A103882391
:1019400041F010921D0161EA73E08DE191E00E9487
:101950004D3585E494E00E94A9166BE376E085E4BA
:1019600094E00E94271668E371E085E494E00E9409
:10197000BF1668E376E085E494E00E942716CC2346
:1019800081F089E090E00E94C1078091A103882343
:1019900041F01092380161EA73E088E391E00E941F
:1019A0004D3585E494E00E94A9166EE176E085E469
:1019B00094E00E94271680914201811103C066E1E4
:1019C00076E002C06DE076E085E494E00E942716A0
:1019D00069E076E085E494E00E942716CC2339F094
:1019E0000E9475079091A10391118093420185E4B3
:1019F00094E00E94A91667EF75E085E494E00E94E8
:101A0000271680914301811103C06EEE75E002C07C
:101A100066EE75E085E494E00E94271662EE75E0BC
:101A200085E494E00E942716CC2339F00E947507C4
:101A30009091A10391118093430185E494E00E9469
:101A4000A91668ED75E085E494E00E942716609180
:101A5000440185E494E00E94041065ED75E085E49E
:101A600094E00E942716CC2339F00E9475079091CC
:101A7000A10391118093440185E494E00E94A9168A
:101A80006AEC75E085E494E00E94271660914501B8
:101A900085E494E00E94041067EC75E085E494E02E
:101AA0000E942716CC2339F00E9475079091A1035C
:101AB00091118093450185E494E00E94A91662EBA0
:101AC00075E085E494E00E9427166091460185E464
:101AD00094E00E9404106FEA75E085E494E00E94AF
:101AE0002716CC2339F00E9475079091A10391111C
:101AF0008093460185E494E00E94A9166EE875E0A3
:101B000085E494E00E9427166091470185E494E003
:101B10000E9404106BE875E085E494E00E942716AB
:101B2000CC2339F00E9475079091A1039111809305
:101B3000470185E494E00E94A91669E775E085E411
:101B400094E00E942716609148017091490185E454
:101B500094E00E94D70F66E775E085E494E00E9468
:101B60002716CC2359F00E9475079091A103992361
:101B700029F090E0909349018093480185E494E036
:101B80000E94A91663E675E085E494E00E9427169A
:101B900060914A0185E494E00E94041060E675E0DB
:101BA00085E494E00E942716CC2339F00E94750743
:101BB0009091A103911180934A0185E494E00E94E1
:101BC000A91666E575E085E494E00E942716609109
:101BD0004B0185E494E00E94041063E575E085E420
:101BE00094E00E942716CC2339F00E94750790914B
:101BF000A103911180934B0185E494E00E94A91602
:101C0000CC2329F00E94440CCF910C94250CCF9149
:101C100008950E9405118FEF97E09093300580930F
:101C20002F0590932E0580932D0582E0809331053A
:101C300010922A051092290510922C0510922B055E
:101C40006DE475E08DE195E00E94271681E08093B8
:101C500031058FEF9FEF9093300580932F05909380
:101C60002E0580932D0566E475E08DE195E00E94D8
:101C700027168091B102882339F060910B018DE124
:101C800095E00E94041006C064E475E08DE195E0E3
:101C90000E94271610922A051092290580E190E0F3
:101CA00090932C0580932B058091B002882339F006
:101CB0006CE873E08DE195E00E94BF1606C066E314
:101CC00075E08DE195E00E94271610922A0510928A
:101CD000290588E190E090932C0580932B0560E323
:101CE00075E08DE195E00E94271668E371E08DE1D3
:101CF00095E00E94BF1610922A051092290580E2F5
:101D000090E090932C0580932B056AE275E08DE1BD
:101D100095E00E94271680914201813019F462E219
:101D200075E002C06AE175E08DE195E00E9427163A
:101D300010922A051092290588E290E090932C05D4
:101D400080932B0564E175E08DE195E00E942716F4
:101D500080914301813019F46CE075E002C063E0CA
:101D600075E08DE195E00C942716CF93DF930E94E8
:101D70000511CDE1D5E080EE9FEF9B8B8A8B998B8F
:101D8000888B82E08C8B1D861C861F861E8669EFE1
:101D900074E0CE010E94271681E08C8B8FEF9FEFBD
:101DA0009B8B8A8B998B888B1D861C8680E190E0AB
:101DB0009F878E876DEE74E0CE010E9427161D86E8
:101DC0001C8688E190E09F878E8761EE74E0CE01EB
:101DD0000E94271662E070E0CE010E94D70F6FEDDF
:101DE00074E0CE010E94271666E070E0CE01DF911C
:101DF000CF910C94D70F0E941E2384E98093BC00DE
:101E00008091BC0084FDFCCF80E00895CF93809347
:101E1000BB000E941E2384E88093BC008091BC001C
:101E200087FFFCCF8091B900887F883299F080913C
:101E3000B900C82FC87F8091B900887F803319F41A
:101E40000E94FB0E05C01092BC0084E48093BC008D
:101E50008C2F01C080E0CF910895CF938093BB0079
:101E60000E941E2384E88093BC008091BC0087FF01
:101E7000FCCF8091B900887F883129F08091B9002A
:101E8000887F803411F480E017C08091B900C82F9A
:101E9000C87F8091B900887F803229F08091B90095
:101EA000887F883419F40E94FB0E05C01092BC0094
:101EB00084E48093BC008C2FCF9108950E941E2350
:101EC00084EA8093BC008091BC0087FFFCCF8091A6
:101ED000B900887F883029F08091B900887F8031EF
:101EE00011F480E008958091B900887F883341F42F
:101EF0008091B9001092BC0094E49093BC0002C0A1
:101F00008091B900887F0895CF93C82F0E941E2327
:101F1000CC2311F084EC01C084E88093BC00809154
:101F2000BC0087FFFCCF8091B900887F883341F4E3
:101F30008091B9001092BC0094E49093BC0002C060
:101F40008091B900887FCF910895CF92DF92EF9270
:101F5000FF920F931F93CF93DF9377FF1DC06A010A
:101F60007B01EC016DE20E9420168C01442755276D
:101F7000BA014C195D096E097F092AE0CE010E9461
:101F80006016800F911FDF91CF911F910F91FF90ED
:101F9000EF90DF90CF9008952AE0DF91CF911F91CD
:101FA0000F91FF90EF90DF90CF900C946016AB01F3
:101FB000770F660B770B0C94A50F0F931F93CF939E
:101FC000DF93EC01AB01770F660B770B0E94A50F37
:101FD0008C01CE010E94A916800F911FDF91CF9135
:101FE0001F910F910895CF93DF93BC0185E494E096
:101FF0000E944B16EC0185E494E00E94A9168C0F18
:102000009D1FDF91CF910895462F50E060E070E072
:102010002AE00C9460161F93CF93DF93182FD62FCE
:10202000C42F109221040E945E0F8093210481111D
:1020300027C0812F880F0E942D0F809321048823B1
:1020400021F08130E9F482E01BC08D2F0E94060F41
:1020500080932104882321F0813091F483E010C023
:102060008C2F0E94060F809321048111F5CF0E94CE
:10207000FB0E80932104882319F0813009F487E056
:10208000DF91CF911F910895CF93DF93D82FC09107
:10209000500510925305109252051092220410928E
:1020A00021040E945E0F8093210481113CC0CC0F5B
:1020B0008C2F0E942D0F80932104811134C08D2F0D
:1020C0000E94060F8093210481112DC00E945E0F93
:1020D00080932104811127C081E08C0F0E942D0F75
:1020E0008093210481111FC080912204811114C0AA
:1020F0000E94840F809321048835A9F48091BB004D
:102100008093230481E080935305809351050E94BE
:10211000FB0E8093210407C081E00E94840F80930E
:102120002104803559F380915305E0915105E81B56
:10213000E0935205811103C01092520507C08150EF
:1021400080935305F0E0EF5DFB4F8281DF91CF91EB
:1021500008951F93CF93DF9300D0CDB7DEB7182F2C
:102160004A8369830E9444106981962F9095892340
:102170004A814623482B612F809150050F900F9084
:10218000DF91CF911F910C940B1040E061E080E053
:102190000E94A91046E96DE3809150050E940B1042
:1021A00062E070E080E090E00E947D2240E260E228
:1021B00088E00E94A91062E070E080E090E00E9458
:1021C0007D2240E060E288E00C94A910893710F08D
:1021D0004FE007C0482F50E083E0559547958A951A
:1021E000E1F76FE088E00E94A91063E272E085E405
:1021F00094E00E94BF1688E00E9444108F70682F00
:1022000070E085E494E00C94DD0F60E070E08DE117
:1022100095E00C946514CF93DF93482F50E060E075
:1022200070E02AE085E494E00E946016EC0185E409
:1022300094E00E94A9168C0F9D1FDF91CF91089505
:10224000CF92DF92EF92FF92CF93DF9364EC78E02E
:1022500085E494E00E94AD161092A1030E941E2313
:10226000C0E0D0E06B017C0124EFC20E21E0D21E61
:10227000E11CF11C0E941E236C157D058E059F0537
:1022800098F48EEF94E00E94B61C892B99F3CD3719
:10229000D10581F38EEF94E00E94CE1CFE01EF5534
:1022A000FC4F80832196EDCFFE01EF55FC4F10824D
:1022B000CD2B09F430C181EA93E00E94F30F6DEB5E
:1022C00078E085E494E00E94AD1669E372E081EA6B
:1022D00093E00E945835892B09F4AAC06DEA78E092
:1022E00085E494E00E94271685E494E00E94A916F4
:1022F00080914C019091A00340919F0350919E03C7
:1023000060E070E020E030E0F901EF55FC4FE08143
:10231000EA3339F46115710521F42F5F3F4F61E015
:1023200070E0F901EF55FC4FA081AA3379F56130D7
:10233000710561F56281633539F463816537D9F4DC
:1023400064816E36C1F416C06D3439F463816F3622
:10235000C9F464816E36B1F4B9C0643509F0C2C005
:102360006381653709F0B4C06481653609F0B0C097
:1023700083E0AEC081E06381613621F4648164371B
:1023800009F487E02F5F3F4F62E070E0F901EF55FD
:10239000FC4FA081AA3379F56230710561F5DF0148
:1023A00011979C91905311974C91440F4056542F84
:1023B000550F550F450F940F2F5F3F4F428160ED32
:1023C000640FD901AF55BC4F5C91550F5056452F46
:1023D000440F440F540F462F450F558170ED750F74
:1023E0006481660F6056562F550F550F650F572F96
:1023F000560F63E070E02F5F3F4F203831050CF43B
:1024000083CF80934C0140939F0350939E03209170
:102410004801920F983118F49093A00309C0985185
:102420009093A0038F5F883008F081E080934C0187
:102430006FE372E081EA93E00E945835892B09F43A
:102440006AC065EA78E085E494E00E94271660E0BF
:1024500070E085E494E00E94DD0F81EA93E00E9441
:10246000F30FE1EAF3E0C0E0D0E060E070E080E08C
:1024700090E02191211106C0CE01861B970B409759
:1024800094F049C08D379105B9F3223251F46115AA
:10249000710521F4209729F4BC0103C0209709F4A9
:1024A000EC010196E6CF6C177D07ACF5CB0180956A
:1024B0009095C80FD91F6E557C4FAE018CE893E004
:1024C0000E944435C457DC4F188225C082E05ACFA1
:1024D0006381683609F056CF6481653709F052CFC1
:1024E00085E050CF673551F46381653609F04ACFF6
:1024F0006481643609F046CF84E044CF663409F045
:1025000041CF6381623709F03DCF6481693609F0BC
:1025100039CF86E037CFDF91CF91FF90EF90DF90FA
:10252000CF9008958F929F92AF92BF92EF92FF92B9
:102530000F931F93CF93DF938C01892B11F400EA43
:1025400018E0C8010E94B534D82F8091E80490911A
:10255000E904009751F02091FD04222331F06AE94B
:1025600078E00E9427161092FD040E941E234B0162
:102570005C01C0E08091E6049091E704DC01ED91FC
:10258000FC910284F385E02D09957C01181619064B
:1025900004F58091E8049091E904009741F0DC0192
:1025A000ED91FC910190F081E02D6E2D0995F801DF
:1025B000EC0FF11DE491F0E0EE16FF0621F4CF5F81
:1025C000CD1302C01EC0C0E00E941E234B015C015F
:1025D000D1CF0E941E23AB01BC01481959096A09D9
:1025E0007B098091EA049091EB04A091EC04B091F6
:1025F000ED0484179507A607B70708F0BBCFC0E026
:1026000001C0C1E08091E6049091E704DC01ED9106
:10261000FC910084F185E02D0995892B61F0809172
:10262000E6049091E704DC01ED91FC910680F781CE
:10263000E02D0995E7CF8091E8049091E9040E948C
:10264000A9168C2FDF91CF911F910F91FF90EF90E2
:10265000BF90AF909F908F900895CF93DF93EC0140
:102660006EE878E082EE94E00E942716AE0160E00A
:1026700070E02AE082EE94E00E94601682EE94E020
:102680000E94A91680E090E0DF91CF910C94921205
:102690000895CF92DF92EF92FF920F931F93CF9303
:1026A000DF936C017A018B01C0E0D0E0CE15DF052D
:1026B00089F0D8016D918D01D601ED91FC910190C9
:1026C000F081E02DC6010995892B11F47E0102C02D
:1026D0002196ECCFC701DF91CF911F910F91FF9011
:1026E000EF90DF90CF900895FC01538D448D252FFE
:1026F00030E0842F90E0821B930B541710F0CF969C
:10270000089501970895FC01918D828D981761F0CD
:10271000828DDF01A80FB11D5D968C91928D9F5F18
:102720009F73928F90E008958FEF9FEF0895FC01C3
:10273000918D828D981731F0828DE80FF11D858D76
:1027400090E008958FEF9FEF0895FC01918D228D09
:10275000892F90E0805C9F4F821B91098F7399278E
:10276000089585E494E00E94A51321E0892B09F4E3
:1027700020E0822F0895FC01848DDF01A80FB11D98
:10278000A35ABF4F2C91848D90E001968F739927A7
:10279000848FA689B7892C93A089B1898C91806494
:1027A0008C93938D848D981306C00288F389E02D55
:1027B00080818F7D80830895EF92FF920F931F9306
:1027C000CF93DF93EC0181E0888F9B8D8C8D9813E4
:1027D00005C0E889F989808185FD24C0F62E0B8D1E
:1027E00010E00F5F1F4F0F731127E02E8C8DE81242
:1027F0000CC00FB607FCFACFE889F989808185FF04
:10280000F5CFCE010E94BB13F1CF8B8DFE01E80FF7
:10281000F11DE35AFF4FF0820B8FEA89FB8980811B
:10282000806207C0EE89FF896083E889F989808129
:102830008064808381E090E0DF91CF911F910F91C0
:10284000FF90EF900895CF93DF93EC01888D88235C
:10285000C9F0EA89FB89808185FD05C0A889B9890D
:102860008C9186FD0FC00FB607FCF5CF808185FFE8
:10287000F2CFA889B9898C9185FFEDCFCE010E9456
:10288000BB13E7CFDF91CF91089580E090E0892BD3
:1028900029F00E94B11381110C9400000895DC010D
:1028A0009B96ED91FC919C979081D0968C91892B71
:1028B00080830895DC019996ED91FC919A9790811F
:1028C0009F968C91892B80830895EF92FF920F93AE
:1028D0001F93DC01ED91FC9111971A960D911C91BB
:1028E0001B9718962D913C91199700A0F1A1E02D0E
:1028F0007B0140E050E060E070E009951F910F918E
:10290000FF90EF900895FC01838D882339F06EBD10
:1029100000000DB407FEFDCF8EB5089528E030E02D
:1029200090E8A5A1B6A185A5492F462319F04C91A1
:10293000842B03C04C91809584238C93A7A1B0A5D0
:102940004C9186A5842B8C93A7A1B0A54C9186A50C
:10295000809584238C9396952150310911F7089521
:1029600008958CBD9DBD08950895FC016370658B2D
:102970008481958126813781613039F0633029F077
:1029800091878087338722870895318720879387AF
:10299000828708950E943F35AF92BF92CF92EF9207
:1029A000FF920F931F93CF93DF93EC01262F888D17
:1029B000998D009709F040C06A3059F41D861C8635
:1029C0002C898E859F8538E0239F800D911D1124D1
:1029D00041C06D3009F4AAC08E898823C1F03C89BA
:1029E0008C859D8546E0349F800D911D112448857E
:1029F0005985481759075CF41D861C868E859F856E
:102A000048E0349F800D911D11249F878E87EA88AE
:102A1000FB88088919894E855F856C857D85CC8802
:102A2000CE010E941C1D2C898C859D8536E0239F3C
:102A3000800D911D112442C06A3079F41D861C86D8
:102A40002C89FC013696E4918E859F852E9F800D02
:102A5000911D11249F878E8769C06D3009F466C06F
:102A6000FC0134963491631708F460C03196E49108
:102A7000E61708F45BC0FC013296A590B490462F8F
:102A800050E0431B510937E0349FB001359F700D72
:102A90001124A60EB71EF501329634913196E491B9
:102AA000332311F0E1110DC0F5013496E4912C8926
:102AB0008C859D85E29F800D911D11249D878C87BB
:102AC00035C0F501359644915E89552311F16C8925
:102AD000E32FF0E0E40FF11D47FDFA956E9FD00162
:102AE0006F9FB00D11244C855D854A0F5B1FE885F3
:102AF000F985E417F5076CF41D861C86FC013696F3
:102B0000E4918E859F856E9F800D911D11249F8776
:102B10008E87EA88FB88088919894E855F856C85D0
:102B20007D85CC88CE010E941C1DBECF81E090E047
:102B3000DF91CF911F910F91FF90EF90CF90BF90B9
:102B4000AF9008951F920F920FB60F9211242F93FA
:102B50003F934F935F936F937F938F939F93AF9325
:102B6000BF93EF93FF93E0910501F0910601099562
:102B7000FF91EF91BF91AF919F918F917F916F9155
:102B80005F914F913F912F910F900FBE0F901F902B
:102B900018951F920F920FB60F9211242F933F9307
:102BA0004F935F936F937F938F939F93AF93BF9355
:102BB000EF93FF93E0910301F09104010995FF91D8
:102BC000EF91BF91AF919F918F917F916F915F91A5
:102BD0004F913F912F910F900FBE0F901F9018951E
:102BE0000F931F93CF93DF93EC010E941E236887FE
:102BF00079878A879B87E881F9810284F385E02DB4
:102C0000CE01099597FF17C00E941E2308851985DC
:102C10002A853B85DC01CB01801B910BA20BB30BFA
:102C20000C811D812E813F8180179107A207B30778
:102C300010F38FEF9FEFDF91CF911F910F910895C8
:102C4000DC01ED91FC910190F081E02D0994EF926F
:102C5000FF920F931F93CF93DF938C017B01C0E012
:102C6000D0E0F701EC0FFD1F6491662361F0D801FD
:102C7000ED91FC910190F081E02DC8010995892B1F
:102C800011F02196EECFCE01DF91CF911F910F91E0
:102C9000FF90EF9008956115710579F0FB010190A7
:102CA0000020E9F73197AF01461B570BDC01ED918E
:102CB000FC910280F381E02D099480E090E008957A
:102CC0004F925F926F927F92EF92FF920F931F93BA
:102CD000CF93DF93CDB7DEB7A1970FB6F894DEBFE1
:102CE0000FBECDBF7C01FA01CB0119A2223008F43E
:102CF0002AE08E010F5D1F4F422E512C612C712C4A
:102D0000BF01A30192010E940335F901CA010150DC
:102D100011096A3014F4605D01C0695CD8016C93DC
:102D2000232B242B252B61F7B801C7010E944B16DA
:102D3000A1960FB6F894DEBF0FBECDBFDF91CF9145
:102D40001F910F91FF90EF907F906F905F904F9049
:102D5000089565E472E00C944B160F931F93CF9384
:102D6000DF93EC010E9427168C01CE010E94A91668
:102D7000800F911FDF91CF911F910F9108950C94B7
:102D80004B161F920F920FB60F9211242F933F9361
:102D90004F935F936F937F938F939F93AF93BF9363
:102DA000EF93FF9385E494E00E94BB13FF91EF91B2
:102DB000BF91AF919F918F917F916F915F914F9153
:102DC0003F912F910F900FBE0F901F9018951F925B
:102DD0000F920FB60F9211242F938F939F93EF931F
:102DE000FF93E0915504F09156048081E0915B04DB
:102DF000F0915C0482FD12C0908180915E048F5F2F
:102E00008F7320915F04821751F0E0915E04F0E02F
:102E1000EB5BFB4F958F80935E0401C08081FF9137
:102E2000EF919F918F912F910F900FBE0F901F9058
:102E30001895DC019996ED91FC919A9790819F9657
:102E40008C9180958923808308950F931F93CF934E
:102E5000DF931F92CDB7DEB78C01FC01838D8823F1
:102E600041F0809143049091440469830E94B1141D
:102E70006981C80169830E944F14C8010E94191713
:102E80006981C8010E948314C8010F90DF91CF911E
:102E90001F910F910C945A140F931F93CF93DF93AC
:102EA0001F92CDB7DEB78C01DC015B968C91882335
:102EB00041F0809143049091440469830E94B114CD
:102EC0006981D8019B96ED91FC919C979081D09659
:102ED0008C91809589238083C80169830E9419178A
:102EE0006981C8010E948314C8010F90DF91CF91BE
:102EF0001F910F910C945A14611102C060E201C03D
:102F000061E20C944C171F93CF93DF93EC01162FC3
:102F100066E30E944C17612F63706D8B8A8D62305F
:102F2000A1F06330D1F1613041F0823011F0843092
:102F300011F460EC11C068EC0FC0823011F08430E5
:102F400011F460EA31C068EA2FC0823011F0843099
:102F500011F460E001C068E0CE010E9425178A8D5F
:102F6000813029F480E890E09B878A870FC0843005
:102F700039F480EA90E09B878A8780E590E006C07C
:102F800080EA90E09B878A8780E890E0998788872D
:102F900089A18BA38AA18CA327C0823011F0843031
:102FA00011F460E601C068E6CE010E9425178A8D03
:102FB000813029F480E890E0998788870FC08430B9
:102FC00039F480EA90E09987888780E590E006C030
:102FD00080EA90E09987888780E890E09B878A87DD
:102FE00089A18CA38AA18BA3DF91CF911F91089512
:102FF000EF92FF920F931F93CF93DF9300D0CDB743
:10300000DEB77C01162F6AE229834A830E944C179F
:1030100060E0C7010E942517F70183A1612F680FA7
:10302000C7010E94251760E0C7010E942517F7011C
:1030300083A12981622F680FC7010E9425176BE2C7
:10304000C7010E944C1760E0C7010E942517F701D5
:1030500084A14A81642F680FC7010E94251760E090
:10306000C7010E942517F70184A1602F680FC701CF
:103070000E9425176CE2C7010F900F90DF91CF914E
:103080001F910F91FF90EF900C944C17AF92BF924D
:10309000CF92DF92EF92FF920F931F93CF93DF9324
:1030A000EC015901680128853985621773070CF016
:1030B00053C08A859B85481759070CF04DC0FB010A
:1030C000EA0DFB1D2E173F071CF45901A61AB70A7B
:1030D0009A012C0D3D1D821793071CF46C01C41A34
:1030E000D50A0FEF040F0C0D2FEF260F2A0DCE017E
:1030F0000E94F8178B8D882331F0809143049091C2
:1031000044040E94B114CE010E944F14CE010E94CB
:1031100019171C141D049CF48501101611065CF48B
:103120006F2DCE010E9483146E2DCE010E94831458
:1031300001501109F2CF81E0C81AD108EACFCE01BF
:10314000DF91CF911F910F91FF90EF90DF90CF9083
:10315000BF90AF900C945A14DF91CF911F910F91B3
:10316000FF90EF90DF90CF90BF90AF900895DF92E7
:10317000EF92FF920F931F93CF93DF93EC017901AE
:10318000D02E8885998568177907ECF52A853B85C7
:1031900042175307C4F59B012E0D3F1D821793075D
:1031A0001CF47C01E61AF70A2FEF260F2E0D042FD0
:1031B000CE010E94F8178B8D882331F08091430453
:1031C000909144040E94B114CE010E944F14CE018C
:1031D0000E941917E114F10461F0612FCE010E94E1
:1031E00083146D2DCE010E94831481E0E81AF1084A
:1031F000F1CFCE01DF91CF911F910F91FF90EF9012
:10320000DF900C945A14DF91CF911F910F91FF9092
:10321000EF90DF900895DF92EF92FF920F931F934C
:10322000CF93DF93EC017901D02E888599856817BB
:103230007907F4F58A859B8548175907CCF59A01DB
:103240002E0D3F1D821793071CF47C01E41AF50A2A
:103250008FEF840F082F0E0D262FCE010E94F81736
:103260008B8D882331F080914304909144040E9417
:10327000B114CE010E944F14CE010E941917E1141F
:10328000F10461F0612FCE010E9483146D2DCE01F7
:103290000E94831481E0E81AF108F1CFCE01DF919A
:1032A000CF911F910F91FF90EF90DF900C945A14E3
:1032B000DF91CF911F910F91FF90EF90DF900895D4
:1032C000FF920F931F93CF93DF93EC01122FF32EF6
:1032D00077FD31C0288539856217730764F557FD7E
:1032E0002AC02A853B85421753072CF501E0040FBD
:1032F00021E0260F0E94F8178B8D882331F08091F2
:103300004304909144040E94B114CE010E944F14D2
:10331000CE010E9419176F2DCE010E948314612FD8
:10332000CE010E948314CE01DF91CF911F910F91A6
:10333000FF900C945A14DF91CF911F910F91FF9041
:1033400008956F927F928F929F92AF92BF92CF9289
:10335000DF92EF92FF920F931F93CF93DF93EC01D5
:103360004B015A0169013801E881F9810284F38532
:10337000E02D0995E881F9810288F389E02D870124
:103380009601A501B401CE010995E881F981A50155
:10339000460D571D415051090288F389E02D9601D1
:1033A000B401CE010995E881F9810088F189E02D09
:1033B0009301A501B401CE010995E881F981C80CFA
:1033C000D91CB601615071090088F189E02D930183
:1033D000A501CE010995E881F9810688F789E02DDC
:1033E000CE01DF91CF911F910F91FF90EF90DF9071
:1033F000CF90BF90AF909F908F907F906F900994E7
:10340000CF92DF92EF92FF920F931F93CF93DF93B0
:1034100000D000D000D0CDB7DEB76C01DC01ED915B
:10342000FC916217730789F4041715072CF4942F85
:10343000852FA801092F182F041B150B98012F5F4A
:103440003F4F048CF58DE02D12C04017510709F550
:10345000261737072CF4962F872FB901292F382FDD
:10346000261B370B2F5F3F4F068CF78DE02D870112
:10347000C601099526960FB6F894DEBF0FBECDBFE4
:10348000DF91CF911F910F91FF90EF90DF90CF9040
:1034900008950284F385E02D2D833E834B835C8366
:1034A00069837A830995D601ED91FC910488F589A9
:1034B000E02D2D813E814B815C8169817A81C6013D
:1034C0000995D601ED91FC910688F789E02DC6019A
:1034D00026960FB6F894DEBF0FBECDBFDF91CF9119
:1034E0001F910F91FF90EF90DF90CF900994EF9292
:1034F000FF920F931F93DC01ED91FC9111971A96A7
:103500000D911C911B9718962D913C91199700A035
:10351000F1A1E02D7B0140E050E060E070E0099512
:103520001F910F91FF90EF9008954F925F926F92CD
:103530007F928F929F92AF92BF92CF92DF92EF9243
:10354000FF920F931F93CF93DF9300D0CDB7DEB7D9
:103550006C015A0139014801DC01ED91FC910284B2
:10356000F385E02D69837A8309956981462E7A81F6
:10357000572E640C751CD601ED91FC91461457042E
:103580006CF40088F189E02D87019401A501B20156
:10359000C6010995BFEF4B1A5B0AEDCF0688F78984
:1035A000E02DC6010F900F90DF91CF911F910F91E9
:1035B000FF90EF90DF90CF90BF90AF909F908F9053
:1035C0007F906F905F904F900994AF92BF92CF928F
:1035D000DF92EF92FF920F931F93CF93DF9300D070
:1035E00000D0CDB7DEB75C016901DC01ED91FC9143
:1035F0000284F385E02D4B835C8369837A8309958C
:10360000D501ED91FC9169817A819B012C0D3D1DC5
:10361000215031090488F589E02D78014B815C81C6
:103620008A01C5010995D501ED91FC910688F789BC
:10363000E02DC5010F900F900F900F90DF91CF916B
:103640001F910F91FF90EF90DF90CF90BF90AF90C0
:103650000994AF92BF92CF92DF92EF92FF920F93B5
:103660001F93CF93DF9300D000D0CDB7DEB75C01BE
:103670006901DC01ED91FC910284F385E02D4B831F
:103680005C8369837A830995D501ED91FC914B8127
:103690005C81C40ED51EB1E0CB1AD1080488F5892F
:1036A000E02D7801860169817A819B01C501099528
:1036B000D501ED91FC910688F789E02DC5010F90A9
:1036C0000F900F900F90DF91CF911F910F91FF906E
:1036D000EF90DF90CF90BF90AF9009940895EF9254
:1036E000FF920F931F93DC01ED91FC9100A0F1A1DB
:1036F000E02D09951F910F91FF90EF9008950F9382
:103700001F93DC01ED91FC91068CF78DE02D09955E
:103710001F910F9108950F931F93DC01ED91FC9180
:10372000048CF58DE02D09951F910F910895DC0112
:10373000ED91FC910084F185E02D099408952F927C
:103740003F924F925F926F927F928F929F92AF9231
:10375000BF92CF92DF92EF92FF920F931F93CF937E
:10376000DF9300D01F92CDB7DEB74C017B836A8315
:103770006A01590117019801241B350B37FF03C05B
:10378000319521953109C5014A815B81841B950BD7
:1037900097FF03C091958195910951E05983821754
:1037A000930714F019820BC09A2D8B2D5801092F05
:1037B000182F9A818B81DB82CA82C92ED82E8A81EA
:1037C0009B81A816B9065CF49C2D8D2D6801092FEC
:1037D000182F9A818B81BB82AA82A92EB82E25012F
:1037E000AA81BB814A1A5B0A38016C187D0877FEF2
:1037F00003C0719461947108720157FE03C0BFEF5A
:10380000EB1AFB0AF594E794C016D1061CF00FEFF3
:103810001FEF1FC001E010E01CC0D401ED91FC912E
:10382000B9810484F585E02D9101BB23C1F04A8163
:103830005B81B601C4010995E618F708F7FE04C0DC
:10384000C00ED11EE40CF51CEA81FB813196FB838E
:10385000EA834A815B81A416B506FCF604C0A60182
:103860006A817B81E7CF0F900F900F90DF91CF910E
:103870001F910F91FF90EF90DF90CF90BF90AF908E
:103880009F908F907F906F905F904F903F902F9080
:1038900008952091AE023091AF022817390771F4D4
:1038A0009091AC028091AD02981741F0E091AC028A
:1038B000F0E0EC5AFA4F808190E008958FEF9FEF8F
:1038C000089508951F93CF93DF93DC015C962D91AB
:1038D0003C915D972115310539F481E090E0139614
:1038E0009C938E9312973DC05196ED91FC91529707
:1038F00050969C915097892F80951FB75E964C915A
:103900005E9741FB772770F941FD6095F8944081FF
:10391000772311F0492B01C048234083E901219707
:10392000F1F748E0508160FF02C0592B01C05823D5
:103930005083E9012197F1F76695415099F7772374
:1039400021F090818923808303C08081982B90830C
:103950001FBF5C968D919C915D970197F1F721E0D7
:1039600030E0C901DF91CF911F9108952091AE02FF
:103970003091AF022817390771F48091AD02209180
:10398000AC0290E0805C9F4F821B910960E470E084
:103990000E94EF34089580E090E008952091AE02F7
:1039A0003091AF0228173907B9F49091AC02809199
:1039B000AD02981789F0E091AC02F0E0EC5AFA4FB2
:1039C00080812091AC0230E02F5F3F4F2F7333276F
:1039D0002093AC0290E008958FEF9FEF0895089533
:1039E00080E090E008951F93CF93DF93EC01162FB2
:1039F0008E819F81009799F02B8D211106C067E081
:103A000079E00E94271681E08B8F8E819F81DC01F7
:103A1000ED91FC910190F081E02D612F09958C8151
:103A20009D81DC01ED91FC910190F081E02D612FF1
:103A3000DF91CF911F9109942F923F924F925F9205
:103A40006F927F928F929F92AF92BF92CF92DF92AE
:103A5000EF92FF920F931F93CF93DF93CDB7DEB713
:103A60006C970FB6F894DEBF0FBECDBF9C8F8B8FC7
:103A70005B011A011F830E833701C982DC0158964E
:103A80004D915C9159974115510509F0E5C0189683
:103A90008D919C911997681779070CF0CAC11A96F5
:103AA0008D919C911B97281639060CF0C2C18C2C65
:103AB000912CFB0136E0C39EE00DF11D1124FB8724
:103AC000EA871E161F060CF0B4C1C40133E0880F4C
:103AD000991F3A95E1F79D878C87820D931D1816E3
:103AE00019060CF0A6C157968C91811103C0203B9A
:103AF00008F02F5FAB8DBC8DED91FC911197028486
:103B0000F385E02DCD012A8F09952A8DB5E02B9FF5
:103B100090011124F5013596FF87EE87BB82AA82BA
:103B20002501A9014A195B09598B488BC1010896E7
:103B30009B8B8A8BE889F989E40DF51DE35FF64FCD
:103B40009491988761013D822C82A885A0FF13C0C3
:103B5000AB8DBC8DED91FC91B981B13031F4048411
:103B6000F585E02D2E813F8116C00684F785E02D76
:103B7000EE80FF801AC0EE81FF816E167F06F1F0A5
:103B8000AB8DBC8DED91FC91B981B13051F40484C1
:103B9000F585E02D9301A601B2018B8D9C8D0995D1
:103BA0000DC00684F785E02D7301840194014C81DA
:103BB0005D816A817B818B8D9C8D0995E885E69579
:103BC000E887FFEFCF1ADF0A2C813D81280D391DD0
:103BD0003D832C834A895B89C416D50609F0B5CF8D
:103BE0005FEF451A550A8A819B81880D991D9B8339
:103BF0008A83AE85BF854A165B0609F09BCFEE81AE
:103C0000FF816E167F0609F4F2C0EB8DFC8DA0815A
:103C1000B181F981F13079F4B5016B5F7F4F509636
:103C2000ED91FC915197830128E030E0A1018B8D4B
:103C30009C8D0995DCC06A857B85681979091E967B
:103C4000ED91FC911F9773010C851D859401A101D5
:103C50008B8D9C8D0995CBC0FA0134969491329747
:103C600065917491291BCB01B7E02B9F800D911DAD
:103C70001124FA01259134913B8B2A8BFC0145914B
:103C800054915B834A83FC013296C49031965491DF
:103C90005E87329614913196D4908981823058F0A3
:103CA000612E012E000C7708AD2D0D2C000CBB0BE6
:103CB000B987A88704C019861886612C712CAB8D32
:103CC000BC8DED91FC9111970284F385E02DCD011F
:103CD0000995B9818B2E912C689CC001699C900D2F
:103CE000789C900D1124FC01EA0DFB1DFD87EC87EB
:103CF0001C82712C612CE12F110FFF0B95012E0FEF
:103D00003F1F3B872A87AC0CB11CA5014E0F5F1FDC
:103D10005F8B4E8BC1018D0D911DD7FC9A95998FAC
:103D2000888F4E85641608F062C0862D90E0488525
:103D30005985480F591F489D9001499D300D589D48
:103D4000300D1124D901A20DB31DB98BA88BAA8403
:103D5000BB844C845D84DC80BA85DB1AE88DF98DE8
:103D6000E80FF91FFD8BEC8B8D2D8A0D2E893F8975
:103D7000A216B306B9F1877061F48A819B8101961E
:103D8000EA89FB89AA81BB81EA0FFB1F74909B83A0
:103D90008A8377FE20C0AB8DBC8DED91FC91B981FB
:103DA000B13061F40484F585E02D2E813F814C898A
:103DB0005D89B5018B8D9C8D09950DC00684F785B5
:103DC000E02DEE80FF808401940148895989B20179
:103DD0008B8D9C8D0995770CEFEFAE1ABE0A480CBF
:103DE000591CC2CF3C813C0D3C8363949ACFAB8D70
:103DF000BC8DED91FC9111970688F789E02DCD01DE
:103E00006C960FB6F894DEBF0FBECDBFDF91CF9199
:103E10001F910F91FF90EF90DF90CF90BF90AF90E8
:103E20009F908F907F906F905F904F903F902F90DA
:103E300009946C960FB6F894DEBF0FBECDBFDF912C
:103E4000CF911F910F91FF90EF90DF90CF90BF9097
:103E5000AF909F908F907F906F905F904F903F902A
:103E60002F9008951F920F920FB60F9211242F9347
:103E70003F934F935F936F937F938F939F93AF93F2
:103E8000BF93EF93FF93E091AE02F091AF023097B2
:103E900009F451C0968DA685B785858591FF04C02C
:103EA0009C91892329F447C09C91892309F043C040
:103EB000A389B4899C918589809589238C9386896F
:103EC00097890197F1F7608D718DA685B785558526
:103ED00038E020E0CB010197F1F7822F90E0959533
:103EE0008795282F4C91452309F02068315091F790
:103EF000868D81FD20958091AD0290E001968F73B3
:103F000099273091AC02381749F0A091AD02B0E08A
:103F1000AC5ABA4F2C938093AD0203C0868D81605A
:103F2000868F828D938D0197F1F7A389B4899C9137
:103F30008589892B8C93FF91EF91BF91AF919F91D0
:103F40008F917F916F915F914F913F912F910F9042
:103F50000FBE0F901F901895E091AE02F091AF0246
:103F6000E817F90769F4A389B4899C91858980953C
:103F700089238C931092AF021092AE0281E00895D3
:103F800080E008950C94BE34EF92FF920F931F933C
:103F9000CF93DF93CDE1D5E01D861C868DE290E0C6
:103FA0009F878E8764E670E0CE010E94D70F1D8642
:103FB0001C8681E490E09F878E876BE470E0CE01E1
:103FC0000E94D70F1D861C8685E590E09F878E870F
:103FD00062E370E0CE010E94D70F1D861C8689E641
:103FE00090E09F878E8769E170E0CE010E94D70F35
:103FF000E12C88EFF82E0CE210E029E130E04CE2F1
:1040000050E064E170E0CE010E94001A00E410E08C
:1040100029E130E040E450E064E170E0CE010E942C
:10402000001A04E510E029E130E044E550E064E1E5
:1040300070E0CE010E94001A08E610E029E130E0AD
:1040400048E650E064E170E0CE010E94001A0EE6FE
:1040500010E029E530E04EE650E069E170E0CE0185
:104060000E94001A0FE610E029E530E04FE650E02C
:1040700069E170E0CE010E94001A0EE610E029E12D
:1040800030E04CE250E069E170E0CE010E94001A9D
:104090000FE610E028E130E04CE250E068E170E02B
:1040A000CE010E94001A1D861C861F861E86DF9187
:1040B000CF911F910F91FF90EF900895833081F081
:1040C00028F4813099F08230A1F008958730A9F06A
:1040D0008830B9F08430D1F4809180008F7D03C0A6
:1040E000809180008F7780938000089584B58F77CA
:1040F00002C084B58F7D84BD08958091B0008F7714
:1041000003C08091B0008F7D8093B00008953FB7C9
:10411000F8948091990590919A05A0919B05B09192
:104120009C0526B5A89B05C02F3F19F00196A11D3F
:10413000B11D3FBFBA2FA92F982F8827820F911D3D
:10414000A11DB11DBC01CD0142E0660F771F881F84
:10415000991F4A95D1F7089563E57EE082EE94E0D9
:104160000E94AD168AE49EE00C949212CF92DF92E8
:10417000EF92FF92CF93DF93EC0166E37EE082EE55
:1041800094E00E942716BE0182EE94E00E9427165A
:1041900063E37EE082EE94E00E94271660E570E023
:1041A00082EE94E00E94DD0FC090EA04D090EB0410
:1041B000E090EC04F090ED048091F2049091F3040F
:1041C000A091F404B091F5040097A105B10541F068
:1041D0008093EA049093EB04A093EC04B093ED0475
:1041E00088E893E1A0E0B0E08093EE049093EF04C0
:1041F000A093F004B093F10488E99AE3A0E0B0E062
:104200008093F2049093F304A093F404B093F50424
:1042100080E090E00E949212C114D104E104F10404
:1042200041F0C092EA04D092EB04E092EC04F092E8
:10423000ED0448E853E160E070E04093EE045093F1
:10424000EF046093F0047093F10448E95AE360E0EE
:1042500070E04093F2045093F3046093F40470937D
:10426000F504882331F0D093FC04C093FB0481E073
:1042700001C080E0DF91CF91FF90EF90DF90CF9071
:10428000089580E480937C0080917A00806480931C
:104290007A0080917A0086FDFCCF80917800209191
:1042A000790090E0922B0895CF92DF92EF92FF92E7
:1042B00068E472E085E494E00E94BF1680E00E940A
:1042C00044100E940B1163E572E085E494E00E94C3
:1042D000BF1681E00E9444100E940B116EE572E04F
:1042E00085E494E00E94BF1682E00E9444100E9480
:1042F0000B1169E672E085E494E00E94BF1683E04A
:104300000E9444100E940B1164E772E085E494E07F
:104310000E94BF1684E00E9444100E940B116FE7B8
:1043200072E085E494E00E94BF1685E00E9444108C
:104330000E940B116AE872E085E494E00E94BF16C7
:1043400086E00E9444100E940B1165E972E085E44A
:1043500094E00E94BF1687E00E9444100E940B1157
:1043600060EA72E085E494E00E94BF1688E00E9453
:1043700044100E940B1186E00E9444108F71C82ED9
:10438000D12CDC2CCC240D2C000CEE08FF0885E091
:104390000E944410C82A84E00E944410FE2CED2C98
:1043A000DC2CCC24C82A6BE27EE085E494E00E94F9
:1043B00027162AE0B701A60185E494E00E94601662
:1043C00085E494E0FF90EF90DF90CF900C94A916D5
:1043D000CF93DF93282F30E0F901E95EF14F84910C
:1043E000F901ED50F74FD491F901E152F74FC49123
:1043F000CC2391F081110E945E20EC2FF0E0EE0FB3
:10440000FF1FEB52F74FA591B491EC91ED2381E0A2
:1044100090E021F480E002C080E090E0DF91CF9155
:1044200008951F93CF93DF93282F30E0F901E95EC1
:10443000F14F8491F901ED50F74FD491F901E15218
:10444000F74FC491CC23C9F0162F81110E945E2032
:10445000EC2FF0E0EE0FFF1FE553F74FA591B4915D
:104460008FB7F894111105C09C91ED2FE095E923C9
:1044700002C0EC91ED2BEC938FBFDF91CF911F9198
:104480000895CF93DF9390E0FC01ED50F74F249116
:10449000FC01E152F74F8491882361F190E0880F8D
:1044A000991FFC01E35FF14FC591D491FC01E553E5
:1044B000F74FA591B491611109C09FB7F894888115
:1044C000209582238883EC912E230BC0623061F407
:1044D0009FB7F8943881822F809583238883EC914D
:1044E0002E2B2C939FBF06C08FB7F894E8812E2BFC
:1044F00028838FBFDF91CF9108958F929F92AF92C3
:10450000BF92CF92DF92EF92FF926B017C010E94EB
:1045100087204B015C01C114D104E104F104F1F0E6
:104520000E948720DC01CB0188199909AA09BB09DF
:10453000883E9340A105B10570F321E0C21AD1086D
:10454000E108F10888EE880E83E0981EA11CB11CDA
:10455000C114D104E104F10419F7DDCFFF90EF900D
:10456000DF90CF90BF90AF909F908F900895CF92A3
:10457000DF92EF92FF920F931F93CF93DF93EC01A3
:104580002196FC011491112309F437C0FE016491B6
:104590008DE195E00E944C176E01F2E0CF0ED11C28
:1045A000FE013196C4910C2F0078CF777601DC2F75
:1045B000D15050F0F70164918DE195E00E942517EC
:1045C000FFEFEF1AFF0AF4CFC6018C0F911DEC012B
:1045D000002389F07C019FEFE91AF90AFE0164913A
:1045E00070E06F3F710511F464EF71E080E090E0DE
:1045F0000E947D22E7011150C6CFDF91CF911F911C
:104600000F91FF90EF90DF90CF9008956AE070E0F7
:1046100080E090E00E947D2283E00E9444108F7031
:10462000883031F0843031F0813031F080E008950D
:1046300081E0089582E0089583E008952FB7F8940B
:1046400060919505709196058091970590919805D8
:104650002FBF08951F920F920FB60F9211242F9320
:104660003F938F939F93AF93BF93809195059091C4
:104670009605A0919705B09198053091940523E097
:10468000230F2D3720F40196A11DB11D05C026E88A
:10469000230F0296A11DB11D2093940580939505CB
:1046A00090939605A0939705B093980580919905EE
:1046B00090919A05A0919B05B0919C050196A11D32
:1046C000B11D8093990590939A05A0939B05B09393
:1046D0009C05BF91AF919F918F913F912F910F902A
:1046E0000FBE0F901F901895CF93DF9300D000D08E
:1046F00000D0CDB7DEB7789484B5826084BD84B530
:10470000816084BD85B5826085BD85B5816085BDCC
:1047100080916E00816080936E0010928100809184
:10472000810082608093810080918100816080930C
:104730008100809180008160809380008091B10031
:1047400084608093B1008091B00081608093B0005C
:1047500080917A00846080937A0080917A008260F0
:1047600080937A0080917A00816080937A008091B2
:104770007A00806880937A001092C10014BE61E0D4
:104780008CE00E94412261E084E00E94412260E0CE
:1047900082E00E94412261E08AE00E94412261E0C1
:1047A00089E00E94412261E087E00E94412260E0AE
:1047B00084E00E94112261E08CE00E941122E091CD
:1047C0005504F091560482E08083E0915104F09109
:1047D00052041082E0915304F091540480E18083EC
:1047E00010925D04E0915904F0915A0486E08083B0
:1047F000E0915704F0915804808180618083E091BA
:104800005704F0915804808188608083E0915704B8
:10481000F0915804808180688083E0915704F09182
:10482000580480818F7D808366EF71E085E494E099
:104830000E94271662E070E085E494E00E94D70FA2
:1048400064EF71E085E494E00E94271666E070E072
:1048500085E494E00E94DD0F67ED71E085E494E06B
:104860000E94AD1669EC71E085E494E00E94AD16FB
:1048700080E090E00E94C21F90910C01891390C4C7
:104880000E944121843F91400CF48AC40E94250C6F
:1048900080E090E00E94C21F90910C01891709F4FA
:1048A00053C085E494E00E94A91680E00E945B0C4E
:1048B00010923F0510923E0510924005109241055E
:1048C00061E080913A050E94412261E080913905C2
:1048D0000E94412220913905022E000C330BF90170
:1048E000E152F74FE491F0E0EE0FFF1FE553F74F71
:1048F00085919491909347058093460540913A05A0
:10490000042E000C550BFA01E152F74F8491E82F69
:10491000F0E0EE0FFF1FE553F74F859194919093D0
:10492000490580934805F901ED50F74FE491E09374
:104930004C05FA01ED50F74FE491E0934D0580915D
:104940003805811111C04AC000E010E0C8010E9482
:10495000C21F682F85E494E00E94DC130F5F1F4F95
:104960000034110599F79DCF1FB7F8948091B602D6
:10497000811127C0E9EEF8E08491EDEFF8E0949121
:10498000E82FF0E0EE0FFF1FE35FF14FA591B49128
:10499000EC91E92321F461E08AE00E94112261E0B8
:1049A0008AE00E9441228CB580618CBD8CB5806408
:1049B0008CBD61E08DE00E94412261E08BE00E94AD
:1049C00041228091B6028F5F8093B6021FBF80E5BF
:1049D0008093430481E08093440449C061E0809166
:1049E0003D050E94412261E080913C050E944122E8
:1049F00060E080913D050E94112260E080913C05BD
:104A00000E94112220913D05022E000C330BF9016A
:104A1000E152F74FE491F0E0EE0FFF1FE553F74F3F
:104A200085919491909345058093440540913C0570
:104A3000042E000C550BFA01E152F74F8491E82F38
:104A4000F0E0EE0FFF1FE553F74F8591949190939F
:104A5000430580934205F901ED50F74FE491E0934F
:104A60004B05FA01ED50F74FE491E0934A058DE1D3
:104A700095E00E94191780913B058F3F21F161E07D
:104A80000E94412261E080913B050E94112264EF67
:104A900071E080E090E00E947D2260E080913B0523
:104AA0000E94112264EF71E080E090E00E947D227C
:104AB00061E080913B050E94112264EF71E080E08B
:104AC00090E00E947D228AEC90E00E94B72280E86C
:104AD00090E0909328058093270590932605809376
:104AE00025058DEB90E00E94B72282E080933E0581
:104AF00083E080933F0582E990E00E94B72281E045
:104B00008093370560E08DE195E00E94831760E0B7
:104B100070E08DE195E00E94651463E08DE195E021
:104B20000E94831768EC70E080E090E00E947D2294
:104B30000E94B50E68EE73E080E090E00E947D2256
:104B4000109219051092180510921705109216056B
:104B500010921505109214058DE991E090931B05B4
:104B600080931A0590910A05963108F057C02DEBF5
:104B700030E030931505209314052BE931E0309394
:104B80001705209316052CE231E030931905209388
:104B9000180520916800983050F031E09E3008F4FC
:104BA00030E081E001C0880F3A95EAF701C084E067
:104BB000822B80936800983038F09E3040F0963118
:104BC00048F020E030E008C02DE630E005C02BE6DC
:104BD00030E002C02CE630E030931205209311053E
:104BE000983030F481E001C0880F9A95EAF70EC042
:104BF000292F30E09E3018F42850310902C02E5081
:104C0000310981E001C0880F2A95EAF780931305E6
:104C100080911A0590911B050197F1F78091180575
:104C200090911905892B21F18091AE029091AF02EC
:104C300034E08E3F9307E1F0009711F00E94AC1F23
:104C400080911C058E7F80931C051092AD021092FE
:104C5000AC028EEF94E09093AF028093AE02E091AD
:104C60001105F0911205908180911305892B8083A5
:104C70006CE971E085E494E00E94AD1668E873E1A8
:104C800080E090E00E947D2285E494E00E94A513DC
:104C9000892B09F485C06CE871E085E494E00E94FA
:104CA000AD16A0E0B1E0FD0101900020E9F73197D9
:104CB0008F01005011409E012F5F3F4F86E0F901A8
:104CC00011928A95E9F7BA83A9831C830B83011596
:104CD000110519F480E090E052C0C12CD12C85E47C
:104CE00094E00E94F01597FD48C0F601E050FF4F98
:104CF0002081022E000C330B82179307B9F1C114E7
:104D0000D10421F420E030E06901E9CF9601A90146
:104D100041505109FA01E050FF4F6081062E000C0E
:104D2000770B86179707F1F44115510569F3A0E059
:104D3000B1E060E070E05601A41AB50AFD90FB01F5
:104D4000EA0DFB1DE050FF4FE081FE1629F06417CD
:104D50007507D1F29A01DBCF6F5F7F4F641775073C
:104D600068F3F5CF41155105A9F7CCCF96012F5F18
:104D70003F4F2017310741F6ADCF8FEF9FEF892BC3
:104D800079F46BE771E085E494E00E94AD1681E070
:104D90000E945B0C60ED77E080E090E00E947D2255
:104DA000449A459A8091B9008E7F8093B900809192
:104DB000B9008D7F8093B90088E48093B80084E4C3
:104DC0008093BC00449A459A8CE08093B80062E0DE
:104DD00070E080E090E00E947D2246E96CE38091E3
:104DE00050050E940B1062E070E080E090E00E94AD
:104DF0007D2200914301F0904201109145010E94F3
:104E0000C510F1E0FF1208C04CE16EE380E00E94A3
:104E1000A91089EA91E007C044E26EE380E00E94B5
:104E2000A91086EC91E00E94F30F011106C040E248
:104E300060E283E00E94A91009C040E060E283E0E4
:104E40000E94A91082EE91E00E94F30F40E060EE14
:104E500088E00E94A91064EF71E080E090E00E9479
:104E60007D22812F0E94E6108EEF91E00E94F30FC9
:104E700040914601483018F44295407F01C040E21D
:104E800060E781E00E94A910409147014F706FE0F8
:104E900082E00E94A9106AE070E080E090E00E9449
:104EA0007D22F89414BE8091600088618093600038
:104EB00081E68093600010928000109281008EEE57
:104EC00095E89093850080938400809181008460B0
:104ED0008093810080916F00816080936F0078944F
:104EE0000E9454211092B4026AE070E080E090E0E9
:104EF0000E947D220E94B50E68EE73E080E090E093
:104F00000E947D226BE671E085E494E00E94271602
:104F100000E010E0F801E354FD4F1082118212828C
:104F20001382148269E671E085E494E00E942716FA
:104F30000B5F1F4F0233110569F785E494E00E946F
:104F4000A91667E571E085E494E00E94AD160E9421
:104F5000051162E370E080E090E00E947D2285E42C
:104F600094E00E94A916F12CA12CB12CC12CD12CBB
:104F700097EE892E93E0992EEA2C40E060EC83E0D6
:104F80000E94A91040E860EE88E00E94A9108F2DD1
:104F90000E94E61069E170E080E090E00E947D22CE
:104FA00080914E050E94E8213C010E941E231B01B6
:104FB0002C0124E6220E311C411C511C00E010E0A3
:104FC0000E941E23DC01CB0182199309A409B509B3
:104FD000B7FF0BC080914E050E94E8216816790644
:104FE00014F40F5F1F4F3C01EBCF62E070E080E0F4
:104FF00090E00E947D2240E060EE88E00E94A910CF
:105000000E94C510702E11270815190514F46501AA
:1050100048016CE371E085E494E00E9427166E2D50
:1050200085E494E00E94041068E271E085E494E075
:105030000E942716B80185E494E00E94D70F69E129
:1050400072E085E494E00E94BF16272D30E0A0EACC
:10505000B0E00E94D434AB01BC0185E494E00E942E
:10506000A50F8DE192E00E94F30F64E170E080E013
:1050700090E00E947D223FEFA31AB30A48E0F40EAD
:1050800080E8F81279CF6AE171E085E494E00E944B
:105090002716B60185E494E00E94D70F6FE071E017
:1050A00085E494E00E942716B3E0CC0CDD1CBA9591
:1050B000E1F7B60185E494E00E94DD0F10922A0525
:1050C0001092290510922C0510922B0565E071E0D5
:1050D0008DE195E00E942716B6018DE195E00E94D2
:1050E000D70F0E94FC070E94412190938303809375
:1050F00082030E9405110E94090E15E1212E312C18
:1051000009E3C02ED12C8EE6682E712C8091B50259
:1051100081111DC06CE372E082EE94E00E942716BC
:105120002AE040E050E0BA0182EE94E00E9460166E
:1051300082EE94E00E94A91665E372E08091E80493
:105140009091E9040E94AD1681E08093B502ECE5F0
:10515000F7E0F0930401E09303018091690083601C
:1051600080936900E89A0E9406231092B40283E0BB
:1051700080938A0311E08091B40281111AC00E94C9
:105180004121853F9140ACF090919F038091840331
:1051900098130FC08091850381110BC00C94F932D4
:1051A00064EB71E085E494E00E94AD160E94440C2B
:1051B0006DCBA8951092B3021092B20210928503A3
:1051C00060E08CE00E9411228091B40218161CF459
:1051D00082E080938A0365E070E080E090E00E94C6
:1051E0007D22E89888E493E1909304018093030181
:1051F0000E944121909383038093820390919F03A7
:1052000080918403891709F48EC080910B018F5F10
:1052100080930B019093840310928A038091810301
:10522000811181C0AAE2B3E08BE293E04FEE52E03D
:105230002E91FC012293CF01F2E0AF3EBF07C1F7F0
:105240001092EF0280E0FA019191AF01891708F402
:10525000892FF3E04B325F07B1F780932B036EE1A8
:105260000E94E334811101C081E080930701109214
:10527000B8028091A00390918003891739F180933F
:105280008003A3E4B3E084E493E04CE253E02E9186
:10529000FC012293CF01F3E0AC32BF07C1F71092BB
:1052A0002C0380E0FA019191AF01891708F4892F4E
:1052B000F3E044345F07B1F780935E036EE10E9430
:1052C000E334811101C081E08093080180914C0199
:1052D00090910A01891739F180930A01ADE7B3E093
:1052E0008EE793E040E653E02E91FC012293CF013C
:1052F000F3E0A036BF07C1F71092600380E0FA0127
:105300009191AF01891708F4892FF3E04E375F07B9
:10531000B1F780937E036EE10E94E334811101C0F6
:1053200081E08093090180917F03882329F0109206
:105330007F038CE380930B0180910B018C3399F4F4
:105340001092B10210920B010E94FC078091B002F2
:10535000882349F081E08093B1020E94EB0A60E06B
:1053600080E00E94190B0091820310918303043F97
:1053700021E012070CF027C1FF24F394F0928A0376
:1053800061E08CE00E94112268EC70E080E090E027
:105390000E947D22003931E0130714F00C9423336E
:1053A0000C3241E014071CF0F092B7020DC0083C2B
:1053B000110514F082E006C00233110514F083E0F9
:1053C00001C084E08093B70265E572E085E494E073
:1053D0000E94271680914A010E940B1165E472E039
:1053E00085E494E00E9427168091B7020E940B1179
:1053F0002091B70230E0F89480914A01823081F424
:1054000090915D03992361F091E0909381032430A2
:10541000310509F0A2C090915D0391110AC043C00B
:10542000109281032430310509F048C08230D9F54B
:10543000F2CF913031F480914C018F5F80934C0119
:1054400017C0923031F48091A0038F5F8093A00346
:105450000FC0933031F480919F038F5F80939F033F
:1054600007C0943029F480919E038F5F80939E0340
:1054700080914C01883018F081E080934C0180913C
:10548000A003883110F01092A00380919F038C3309
:1054900010F010929F0380919E038C3308F47DC01E
:1054A00010929E037AC08F5F883018F480934A016F
:1054B00002C010924A0110925D036FC02230310584
:1054C00009F04FC0823009F041C090915D039923EB
:1054D000E9F1913031F480914C01815080934C017D
:1054E00017C0923031F48091A00381508093A003C3
:1054F0000FC0933031F480919F03815080939F03BC
:1055000007C0943029F480919E03815080939E03BC
:1055100080914C01883018F087E080934C01809195
:10552000A003883118F087E18093A00380919F0346
:105530008C3318F08BE380939F0380919E038C3310
:1055400008F440C08BE380939E033CC081508830B8
:1055500008F087E080934A0133C02230310509F416
:10556000B4CF23303105C9F490915D0391509093ED
:105570005D03813021F4933028F182E005C0823050
:1055800031F49530F8F084E080935D031BC0811105
:1055900019C081E080937F0315C02130310591F45B
:1055A00080915D038F5F80935D0390914A019130FC
:1055B00019F4833038F004C0923021F4853010F0B3
:1055C00010925D0378946CEC74E085E494E00E94A2
:1055D000271660918A0385E494E00E9404106EEB24
:1055E00074E085E494E00E94271640918603509170
:1055F000870360918803709189032AE085E494E031
:105600000E94601685E494E00E94A91680918A03A6
:10561000833008F0EAC7823009F01BC261E08CE0F9
:105620000E941122E0914C018E2F90E0FC013197F5
:10563000E730F105E0F4EC5CFF4F0C94253560E9B0
:1056400072E011C069E872E00EC061E872E00BC060
:1056500067E772E008C06EE672E005C067E672E0D8
:1056600002C06EE572E085E494E00E94271660E2D5
:1056700085E494E00E9420168091A0038A3028F4EB
:1056800060E385E494E00E9420166091A00385E425
:1056900094E00E9404106AE385E494E00E942016DE
:1056A00080919F038A3028F460E385E494E00E94AF
:1056B000201660919F0385E494E00E9404106AE341
:1056C00085E494E00E94201680919E038A3028F49D
:1056D00060E385E494E00E94201660919E0385E4D7
:1056E00094E00E94041060E285E494E00E94201699
:1056F0000E9405110E9406231092B402811133C04A
:105700006EE673E085E494E00E94AD160E940511F8
:1057100010922A051092290510922C0510922B0543
:1057200064E673E08DE195E00E94271610922A0549
:105730001092290588E090E090932C0580932B052A
:1057400065E573E08DE195E00E94271610922A0529
:105750001092290580E190E090932C0580932B0511
:1057600067E473E056C1813009F0FDC087E00E9414
:105770004410182F1F736EE173E085E494E00E94DB
:105780002716612F85E494E00E94041062E173E023
:1057900085E494E00E94AD160E94051110922A053E
:1057A0001092290510922C0510922B0568E073E0E9
:1057B0008DE195E00E94271610922A051092290586
:1057C00088E090E090932C0580932B056FEF72E0BA
:1057D0008DE195E00E942716612F8DE195E00E94F2
:1057E00004106BEF72E08DE195E00E942716809126
:1057F000BB029091BC0201969093BC028093BB02C5
:105800008091EF028F5F8093EF0280912C038F5F76
:1058100080932C03809160038F5F80936003AAEED6
:10582000B2E025E0CD010597FC01322F01900D92E9
:105830003A95E1F7DC0182E0AD3BB80799F780913A
:105840004C018093BD028091A0038093BE028091A1
:105850009F038093BF0280919E038093C0021093A8
:10586000C102612F81E00E94190B10920B01A12C43
:10587000B12C850103541D4FF801608185E494E04B
:105880000E94041069EF72E085E494E00E942716FC
:10589000F801618185E494E00E94041067EF72E0F2
:1058A00085E494E00E942716F801628185E494E083
:1058B0000E94041065EF72E085E494E00E942716D0
:1058C000F801638185E494E00E9404106EEE72E0BA
:1058D00085E494E00E942716F801648185E494E051
:1058E0000E9404106AEE72E085E494E00E94AD1616
:1058F000F5E0AF0EB11C22E3A216B10409F0B9CF56
:1059000080914401882321F19091EF02981700F1D2
:105910008091B80281111CC005E010E061E084E0D4
:105920000E94112268EC70E080E090E00E947D22ED
:1059300060E084E00E94112268EC70E080E090E07A
:105940000E947D220150110949F781E08093B8023D
:105950000E941E23609386037093870380938803BD
:10596000909389035AC0823081F567ED72E085E437
:1059700094E00E94AD160E94051110922A05109223
:10598000290510922C0510922B056DEC72E08DE12B
:1059900095E00E94271610922A051092290588E0AA
:1059A00090E090932C0580932B0562EC72E08DE1E2
:1059B00095E00E9427168091B9029091BA02019653
:1059C0009093BA028093B90228C0833031F50E94C7
:1059D000051110922A051092290510922C0510929B
:1059E0002B056DEA72E085E494E00E94AD1661EA51
:1059F00072E08DE195E00E94271610922A05109220
:105A0000290588E090E090932C0580932B0567E9A9
:105A100072E08DE195E00E9427160E9454214FE12B
:105A20006FE187E00E94A91040E460E482E00E94F8
:105A3000A91040E060E482E00E94A91040E460E424
:105A400082E00E94A91064EF71E080E090E00E9483
:105A50007D2280914A01811198C00E94051180EE3B
:105A600097E09093300580932F0590932E058093B7
:105A70002D0582E08093310510922A0510922905A8
:105A800010922C0510922B0565EB73E08DE195E0EB
:105A90000E94271681E0809331058FEF9FEF90934E
:105AA000300580932F0590932E0580932D0510923D
:105AB0002A051092290580E190E090932C058093AF
:105AC0002B056DEA73E08DE195E00E942716609149
:105AD000EF028DE195E00E94041010922A051092C9
